{
  "_format": "hh-sol-artifact-1",
  "contractName": "Patient",
  "sourceName": "contracts/Patient.sol",
  "abi": [
    {
      "inputs": [
        {
          "internalType": "uint256",
          "name": "_id",
          "type": "uint256"
        },
        {
          "internalType": "address",
          "name": "_owner",
          "type": "address"
        }
      ],
      "stateMutability": "nonpayable",
      "type": "constructor"
    },
    {
      "anonymous": false,
      "inputs": [
        {
          "indexed": true,
          "internalType": "address",
          "name": "owner",
          "type": "address"
        },
        {
          "indexed": true,
          "internalType": "address",
          "name": "approved",
          "type": "address"
        },
        {
          "indexed": true,
          "internalType": "uint256",
          "name": "tokenId",
          "type": "uint256"
        }
      ],
      "name": "Approval",
      "type": "event"
    },
    {
      "anonymous": false,
      "inputs": [
        {
          "indexed": true,
          "internalType": "address",
          "name": "owner",
          "type": "address"
        },
        {
          "indexed": true,
          "internalType": "address",
          "name": "operator",
          "type": "address"
        },
        {
          "indexed": false,
          "internalType": "bool",
          "name": "approved",
          "type": "bool"
        }
      ],
      "name": "ApprovalForAll",
      "type": "event"
    },
    {
      "anonymous": false,
      "inputs": [
        {
          "indexed": true,
          "internalType": "address",
          "name": "from",
          "type": "address"
        },
        {
          "indexed": true,
          "internalType": "address",
          "name": "to",
          "type": "address"
        },
        {
          "indexed": true,
          "internalType": "uint256",
          "name": "tokenId",
          "type": "uint256"
        }
      ],
      "name": "Transfer",
      "type": "event"
    },
    {
      "inputs": [
        {
          "internalType": "address",
          "name": "to",
          "type": "address"
        },
        {
          "internalType": "uint256",
          "name": "tokenId",
          "type": "uint256"
        }
      ],
      "name": "approve",
      "outputs": [],
      "stateMutability": "nonpayable",
      "type": "function"
    },
    {
      "inputs": [
        {
          "internalType": "address",
          "name": "owner",
          "type": "address"
        }
      ],
      "name": "balanceOf",
      "outputs": [
        {
          "internalType": "uint256",
          "name": "",
          "type": "uint256"
        }
      ],
      "stateMutability": "view",
      "type": "function"
    },
    {
      "inputs": [
        {
          "internalType": "uint256",
          "name": "tokenId",
          "type": "uint256"
        }
      ],
      "name": "getApproved",
      "outputs": [
        {
          "internalType": "address",
          "name": "",
          "type": "address"
        }
      ],
      "stateMutability": "view",
      "type": "function"
    },
    {
      "inputs": [],
      "name": "id",
      "outputs": [
        {
          "internalType": "uint256",
          "name": "",
          "type": "uint256"
        }
      ],
      "stateMutability": "view",
      "type": "function"
    },
    {
      "inputs": [
        {
          "internalType": "address",
          "name": "owner",
          "type": "address"
        },
        {
          "internalType": "address",
          "name": "operator",
          "type": "address"
        }
      ],
      "name": "isApprovedForAll",
      "outputs": [
        {
          "internalType": "bool",
          "name": "",
          "type": "bool"
        }
      ],
      "stateMutability": "view",
      "type": "function"
    },
    {
      "inputs": [],
      "name": "name",
      "outputs": [
        {
          "internalType": "string",
          "name": "",
          "type": "string"
        }
      ],
      "stateMutability": "view",
      "type": "function"
    },
    {
      "inputs": [],
      "name": "owner",
      "outputs": [
        {
          "internalType": "address",
          "name": "",
          "type": "address"
        }
      ],
      "stateMutability": "view",
      "type": "function"
    },
    {
      "inputs": [
        {
          "internalType": "uint256",
          "name": "tokenId",
          "type": "uint256"
        }
      ],
      "name": "ownerOf",
      "outputs": [
        {
          "internalType": "address",
          "name": "",
          "type": "address"
        }
      ],
      "stateMutability": "view",
      "type": "function"
    },
    {
      "inputs": [
        {
          "internalType": "address",
          "name": "from",
          "type": "address"
        },
        {
          "internalType": "address",
          "name": "to",
          "type": "address"
        },
        {
          "internalType": "uint256",
          "name": "tokenId",
          "type": "uint256"
        }
      ],
      "name": "safeTransferFrom",
      "outputs": [],
      "stateMutability": "nonpayable",
      "type": "function"
    },
    {
      "inputs": [
        {
          "internalType": "address",
          "name": "from",
          "type": "address"
        },
        {
          "internalType": "address",
          "name": "to",
          "type": "address"
        },
        {
          "internalType": "uint256",
          "name": "tokenId",
          "type": "uint256"
        },
        {
          "internalType": "bytes",
          "name": "data",
          "type": "bytes"
        }
      ],
      "name": "safeTransferFrom",
      "outputs": [],
      "stateMutability": "nonpayable",
      "type": "function"
    },
    {
      "inputs": [
        {
          "internalType": "address",
          "name": "operator",
          "type": "address"
        },
        {
          "internalType": "bool",
          "name": "approved",
          "type": "bool"
        }
      ],
      "name": "setApprovalForAll",
      "outputs": [],
      "stateMutability": "nonpayable",
      "type": "function"
    },
    {
      "inputs": [
        {
          "internalType": "uint256",
          "name": "_id",
          "type": "uint256"
        }
      ],
      "name": "setReservationTokenId",
      "outputs": [],
      "stateMutability": "nonpayable",
      "type": "function"
    },
    {
      "inputs": [
        {
          "internalType": "bytes4",
          "name": "interfaceId",
          "type": "bytes4"
        }
      ],
      "name": "supportsInterface",
      "outputs": [
        {
          "internalType": "bool",
          "name": "",
          "type": "bool"
        }
      ],
      "stateMutability": "view",
      "type": "function"
    },
    {
      "inputs": [],
      "name": "symbol",
      "outputs": [
        {
          "internalType": "string",
          "name": "",
          "type": "string"
        }
      ],
      "stateMutability": "view",
      "type": "function"
    },
    {
      "inputs": [
        {
          "internalType": "uint256",
          "name": "tokenId",
          "type": "uint256"
        }
      ],
      "name": "tokenURI",
      "outputs": [
        {
          "internalType": "string",
          "name": "",
          "type": "string"
        }
      ],
      "stateMutability": "view",
      "type": "function"
    },
    {
      "inputs": [
        {
          "internalType": "address",
          "name": "from",
          "type": "address"
        },
        {
          "internalType": "address",
          "name": "to",
          "type": "address"
        },
        {
          "internalType": "uint256",
          "name": "tokenId",
          "type": "uint256"
        }
      ],
      "name": "transferFrom",
      "outputs": [],
      "stateMutability": "nonpayable",
      "type": "function"
    },
    {
      "inputs": [
        {
          "internalType": "address",
          "name": "newOwner",
          "type": "address"
        }
      ],
      "name": "transferOwnership",
      "outputs": [],
      "stateMutability": "nonpayable",
      "type": "function"
    },
    {
      "inputs": [
        {
          "internalType": "address",
          "name": "pharmacyAddress",
          "type": "address"
        }
      ],
      "name": "transferReservationToken",
      "outputs": [],
      "stateMutability": "nonpayable",
      "type": "function"
    }
  ],
  "bytecode": "0x60806040523480156200001157600080fd5b506040516200141838038062001418833981016040819052620000349162000166565b604080518082018252600781526614185d1a595b9d60ca1b6020808301918252835180850190945260018452600560fc1b9084015281519192916200007c91600091620000c0565b50805162000092906001906020840190620000c0565b505050600691909155600780546001600160a01b0319166001600160a01b03909216919091179055620001e2565b828054620000ce90620001a5565b90600052602060002090601f016020900481019282620000f257600085556200013d565b82601f106200010d57805160ff19168380011785556200013d565b828001600101855582156200013d579182015b828111156200013d57825182559160200191906001019062000120565b506200014b9291506200014f565b5090565b5b808211156200014b576000815560010162000150565b600080604083850312156200017a57600080fd5b825160208401519092506001600160a01b03811681146200019a57600080fd5b809150509250929050565b600181811c90821680620001ba57607f821691505b60208210811415620001dc57634e487b7160e01b600052602260045260246000fd5b50919050565b61122680620001f26000396000f3fe608060405234801561001057600080fd5b50600436106101165760003560e01c80638da5cb5b116100a2578063b88d4fde11610071578063b88d4fde1461023c578063c87b56dd1461024f578063c9be655f14610262578063e985e9c514610275578063f2fde38b146102b157600080fd5b80638da5cb5b1461020557806395d89b4114610218578063a22cb46514610220578063af640d0f1461023357600080fd5b806323b872dd116100e957806323b872dd146101985780633e954b16146101ab57806342842e0e146101be5780636352211e146101d157806370a08231146101e457600080fd5b806301ffc9a71461011b57806306fdde0314610143578063081812fc14610158578063095ea7b314610183575b600080fd5b61012e610129366004610d39565b6102c4565b60405190151581526020015b60405180910390f35b61014b610316565b60405161013a9190610dae565b61016b610166366004610dc1565b6103a8565b6040516001600160a01b03909116815260200161013a565b610196610191366004610df6565b6103cf565b005b6101966101a6366004610e20565b6104ea565b6101966101b9366004610e5c565b61051b565b6101966101cc366004610e20565b610539565b61016b6101df366004610dc1565b610554565b6101f76101f2366004610e5c565b6105b4565b60405190815260200161013a565b60075461016b906001600160a01b031681565b61014b61063a565b61019661022e366004610e77565b610649565b6101f760065481565b61019661024a366004610ec9565b610658565b61014b61025d366004610dc1565b610690565b610196610270366004610dc1565b600855565b61012e610283366004610fa5565b6001600160a01b03918216600090815260056020908152604080832093909416825291909152205460ff1690565b6101966102bf366004610e5c565b610704565b60006001600160e01b031982166380ac58cd60e01b14806102f557506001600160e01b03198216635b5e139f60e01b145b8061031057506301ffc9a760e01b6001600160e01b03198316145b92915050565b60606000805461032590610fd8565b80601f016020809104026020016040519081016040528092919081815260200182805461035190610fd8565b801561039e5780601f106103735761010080835404028352916020019161039e565b820191906000526020600020905b81548152906001019060200180831161038157829003601f168201915b5050505050905090565b60006103b38261073d565b506000908152600460205260409020546001600160a01b031690565b60006103da82610554565b9050806001600160a01b0316836001600160a01b0316141561044d5760405162461bcd60e51b815260206004820152602160248201527f4552433732313a20617070726f76616c20746f2063757272656e74206f776e656044820152603960f91b60648201526084015b60405180910390fd5b336001600160a01b038216148061046957506104698133610283565b6104db5760405162461bcd60e51b815260206004820152603e60248201527f4552433732313a20617070726f76652063616c6c6572206973206e6f7420746f60448201527f6b656e206f776e6572206e6f7220617070726f76656420666f7220616c6c00006064820152608401610444565b6104e5838361079c565b505050565b6104f4338261080a565b6105105760405162461bcd60e51b815260040161044490611013565b6104e5838383610889565b600754600854610536916001600160a01b0316908390610889565b50565b6104e583838360405180602001604052806000815250610658565b6000818152600260205260408120546001600160a01b0316806103105760405162461bcd60e51b8152602060048201526018602482015277115490cdcc8c4e881a5b9d985b1a59081d1bdad95b88125160421b6044820152606401610444565b60006001600160a01b03821661061e5760405162461bcd60e51b815260206004820152602960248201527f4552433732313a2061646472657373207a65726f206973206e6f7420612076616044820152683634b21037bbb732b960b91b6064820152608401610444565b506001600160a01b031660009081526003602052604090205490565b60606001805461032590610fd8565b610654338383610a25565b5050565b610662338361080a565b61067e5760405162461bcd60e51b815260040161044490611013565b61068a84848484610af4565b50505050565b606061069b8261073d565b60006106b260408051602081019091526000815290565b905060008151116106d257604051806020016040528060008152506106fd565b806106dc84610b27565b6040516020016106ed929190611061565b6040516020818303038152906040525b9392505050565b6007546001600160a01b0316331461071b57600080fd5b600780546001600160a01b0319166001600160a01b0392909216919091179055565b6000818152600260205260409020546001600160a01b03166105365760405162461bcd60e51b8152602060048201526018602482015277115490cdcc8c4e881a5b9d985b1a59081d1bdad95b88125160421b6044820152606401610444565b600081815260046020526040902080546001600160a01b0319166001600160a01b03841690811790915581906107d182610554565b6001600160a01b03167f8c5be1e5ebec7d5bd14f71427d1e84f3dd0314c0f7b2291e5b200ac8c7c3b92560405160405180910390a45050565b60008061081683610554565b9050806001600160a01b0316846001600160a01b0316148061085d57506001600160a01b0380821660009081526005602090815260408083209388168352929052205460ff165b806108815750836001600160a01b0316610876846103a8565b6001600160a01b0316145b949350505050565b826001600160a01b031661089c82610554565b6001600160a01b0316146109005760405162461bcd60e51b815260206004820152602560248201527f4552433732313a207472616e736665722066726f6d20696e636f72726563742060448201526437bbb732b960d91b6064820152608401610444565b6001600160a01b0382166109625760405162461bcd60e51b8152602060048201526024808201527f4552433732313a207472616e7366657220746f20746865207a65726f206164646044820152637265737360e01b6064820152608401610444565b61096d60008261079c565b6001600160a01b03831660009081526003602052604081208054600192906109969084906110a6565b90915550506001600160a01b03821660009081526003602052604081208054600192906109c49084906110bd565b909155505060008181526002602052604080822080546001600160a01b0319166001600160a01b0386811691821790925591518493918716917fddf252ad1be2c89b69c2b068fc378daa952ba7f163c4a11628f55a4df523b3ef91a4505050565b816001600160a01b0316836001600160a01b03161415610a875760405162461bcd60e51b815260206004820152601960248201527f4552433732313a20617070726f766520746f2063616c6c6572000000000000006044820152606401610444565b6001600160a01b03838116600081815260056020908152604080832094871680845294825291829020805460ff191686151590811790915591519182527f17307eab39ab6107e8899845ad3d59bd9653f200f220920489ca2b5937696c31910160405180910390a3505050565b610aff848484610889565b610b0b84848484610c25565b61068a5760405162461bcd60e51b8152600401610444906110d5565b606081610b4b5750506040805180820190915260018152600360fc1b602082015290565b8160005b8115610b755780610b5f81611127565b9150610b6e9050600a83611158565b9150610b4f565b60008167ffffffffffffffff811115610b9057610b90610eb3565b6040519080825280601f01601f191660200182016040528015610bba576020820181803683370190505b5090505b841561088157610bcf6001836110a6565b9150610bdc600a8661116c565b610be79060306110bd565b60f81b818381518110610bfc57610bfc611180565b60200101906001600160f81b031916908160001a905350610c1e600a86611158565b9450610bbe565b60006001600160a01b0384163b15610d1857604051630a85bd0160e11b81526001600160a01b0385169063150b7a0290610c69903390899088908890600401611196565b6020604051808303816000875af1925050508015610ca4575060408051601f3d908101601f19168201909252610ca1918101906111d3565b60015b610cfe573d808015610cd2576040519150601f19603f3d011682016040523d82523d6000602084013e610cd7565b606091505b508051610cf65760405162461bcd60e51b8152600401610444906110d5565b805181602001fd5b6001600160e01b031916630a85bd0160e11b149050610881565b506001949350505050565b6001600160e01b03198116811461053657600080fd5b600060208284031215610d4b57600080fd5b81356106fd81610d23565b60005b83811015610d71578181015183820152602001610d59565b8381111561068a5750506000910152565b60008151808452610d9a816020860160208601610d56565b601f01601f19169290920160200192915050565b6020815260006106fd6020830184610d82565b600060208284031215610dd357600080fd5b5035919050565b80356001600160a01b0381168114610df157600080fd5b919050565b60008060408385031215610e0957600080fd5b610e1283610dda565b946020939093013593505050565b600080600060608486031215610e3557600080fd5b610e3e84610dda565b9250610e4c60208501610dda565b9150604084013590509250925092565b600060208284031215610e6e57600080fd5b6106fd82610dda565b60008060408385031215610e8a57600080fd5b610e9383610dda565b915060208301358015158114610ea857600080fd5b809150509250929050565b634e487b7160e01b600052604160045260246000fd5b60008060008060808587031215610edf57600080fd5b610ee885610dda565b9350610ef660208601610dda565b925060408501359150606085013567ffffffffffffffff80821115610f1a57600080fd5b818701915087601f830112610f2e57600080fd5b813581811115610f4057610f40610eb3565b604051601f8201601f19908116603f01168101908382118183101715610f6857610f68610eb3565b816040528281528a6020848701011115610f8157600080fd5b82602086016020830137600060208483010152809550505050505092959194509250565b60008060408385031215610fb857600080fd5b610fc183610dda565b9150610fcf60208401610dda565b90509250929050565b600181811c90821680610fec57607f821691505b6020821081141561100d57634e487b7160e01b600052602260045260246000fd5b50919050565b6020808252602e908201527f4552433732313a2063616c6c6572206973206e6f7420746f6b656e206f776e6560408201526d1c881b9bdc88185c1c1c9bdd995960921b606082015260800190565b60008351611073818460208801610d56565b835190830190611087818360208801610d56565b01949350505050565b634e487b7160e01b600052601160045260246000fd5b6000828210156110b8576110b8611090565b500390565b600082198211156110d0576110d0611090565b500190565b60208082526032908201527f4552433732313a207472616e7366657220746f206e6f6e20455243373231526560408201527131b2b4bb32b91034b6b83632b6b2b73a32b960711b606082015260800190565b600060001982141561113b5761113b611090565b5060010190565b634e487b7160e01b600052601260045260246000fd5b60008261116757611167611142565b500490565b60008261117b5761117b611142565b500690565b634e487b7160e01b600052603260045260246000fd5b6001600160a01b03858116825284166020820152604081018390526080606082018190526000906111c990830184610d82565b9695505050505050565b6000602082840312156111e557600080fd5b81516106fd81610d2356fea264697066735822122058132215e7736591ecf6c10eb2c85d72612ef7583b96d5b8b3d2474859080fa664736f6c634300080c0033",
  "linkReferences": {},
  "deployedLinkReferences": {}
}