{
  "_format": "hh-sol-artifact-1",
  "contractName": "StockAllocationNFT",
  "sourceName": "contracts/StockAllocation.sol",
  "abi": [
    {
      "inputs": [],
      "stateMutability": "nonpayable",
      "type": "constructor"
    },
    {
      "anonymous": false,
      "inputs": [
        {
          "indexed": true,
          "internalType": "address",
          "name": "owner",
          "type": "address"
        },
        {
          "indexed": true,
          "internalType": "address",
          "name": "approved",
          "type": "address"
        },
        {
          "indexed": true,
          "internalType": "uint256",
          "name": "tokenId",
          "type": "uint256"
        }
      ],
      "name": "Approval",
      "type": "event"
    },
    {
      "anonymous": false,
      "inputs": [
        {
          "indexed": true,
          "internalType": "address",
          "name": "owner",
          "type": "address"
        },
        {
          "indexed": true,
          "internalType": "address",
          "name": "operator",
          "type": "address"
        },
        {
          "indexed": false,
          "internalType": "bool",
          "name": "approved",
          "type": "bool"
        }
      ],
      "name": "ApprovalForAll",
      "type": "event"
    },
    {
      "anonymous": false,
      "inputs": [
        {
          "indexed": true,
          "internalType": "address",
          "name": "from",
          "type": "address"
        },
        {
          "indexed": true,
          "internalType": "address",
          "name": "to",
          "type": "address"
        },
        {
          "indexed": true,
          "internalType": "uint256",
          "name": "tokenId",
          "type": "uint256"
        }
      ],
      "name": "Transfer",
      "type": "event"
    },
    {
      "inputs": [
        {
          "internalType": "address",
          "name": "to",
          "type": "address"
        },
        {
          "internalType": "uint256",
          "name": "tokenId",
          "type": "uint256"
        }
      ],
      "name": "approve",
      "outputs": [],
      "stateMutability": "nonpayable",
      "type": "function"
    },
    {
      "inputs": [
        {
          "internalType": "address",
          "name": "owner",
          "type": "address"
        }
      ],
      "name": "balanceOf",
      "outputs": [
        {
          "internalType": "uint256",
          "name": "",
          "type": "uint256"
        }
      ],
      "stateMutability": "view",
      "type": "function"
    },
    {
      "inputs": [
        {
          "internalType": "uint256",
          "name": "tokenId",
          "type": "uint256"
        }
      ],
      "name": "getApproved",
      "outputs": [
        {
          "internalType": "address",
          "name": "",
          "type": "address"
        }
      ],
      "stateMutability": "view",
      "type": "function"
    },
    {
      "inputs": [
        {
          "internalType": "address",
          "name": "owner",
          "type": "address"
        },
        {
          "internalType": "address",
          "name": "operator",
          "type": "address"
        }
      ],
      "name": "isApprovedForAll",
      "outputs": [
        {
          "internalType": "bool",
          "name": "",
          "type": "bool"
        }
      ],
      "stateMutability": "view",
      "type": "function"
    },
    {
      "inputs": [
        {
          "internalType": "address",
          "name": "recipient",
          "type": "address"
        },
        {
          "internalType": "string",
          "name": "tokenURI",
          "type": "string"
        }
      ],
      "name": "mintNFT",
      "outputs": [
        {
          "internalType": "uint256",
          "name": "",
          "type": "uint256"
        }
      ],
      "stateMutability": "nonpayable",
      "type": "function"
    },
    {
      "inputs": [],
      "name": "name",
      "outputs": [
        {
          "internalType": "string",
          "name": "",
          "type": "string"
        }
      ],
      "stateMutability": "view",
      "type": "function"
    },
    {
      "inputs": [],
      "name": "owner",
      "outputs": [
        {
          "internalType": "address",
          "name": "",
          "type": "address"
        }
      ],
      "stateMutability": "view",
      "type": "function"
    },
    {
      "inputs": [
        {
          "internalType": "uint256",
          "name": "tokenId",
          "type": "uint256"
        }
      ],
      "name": "ownerOf",
      "outputs": [
        {
          "internalType": "address",
          "name": "",
          "type": "address"
        }
      ],
      "stateMutability": "view",
      "type": "function"
    },
    {
      "inputs": [
        {
          "internalType": "address",
          "name": "from",
          "type": "address"
        },
        {
          "internalType": "address",
          "name": "to",
          "type": "address"
        },
        {
          "internalType": "uint256",
          "name": "tokenId",
          "type": "uint256"
        }
      ],
      "name": "safeTransferFrom",
      "outputs": [],
      "stateMutability": "nonpayable",
      "type": "function"
    },
    {
      "inputs": [
        {
          "internalType": "address",
          "name": "from",
          "type": "address"
        },
        {
          "internalType": "address",
          "name": "to",
          "type": "address"
        },
        {
          "internalType": "uint256",
          "name": "tokenId",
          "type": "uint256"
        },
        {
          "internalType": "bytes",
          "name": "data",
          "type": "bytes"
        }
      ],
      "name": "safeTransferFrom",
      "outputs": [],
      "stateMutability": "nonpayable",
      "type": "function"
    },
    {
      "inputs": [
        {
          "internalType": "address",
          "name": "operator",
          "type": "address"
        },
        {
          "internalType": "bool",
          "name": "approved",
          "type": "bool"
        }
      ],
      "name": "setApprovalForAll",
      "outputs": [],
      "stateMutability": "nonpayable",
      "type": "function"
    },
    {
      "inputs": [
        {
          "internalType": "bytes4",
          "name": "interfaceId",
          "type": "bytes4"
        }
      ],
      "name": "supportsInterface",
      "outputs": [
        {
          "internalType": "bool",
          "name": "",
          "type": "bool"
        }
      ],
      "stateMutability": "view",
      "type": "function"
    },
    {
      "inputs": [],
      "name": "symbol",
      "outputs": [
        {
          "internalType": "string",
          "name": "",
          "type": "string"
        }
      ],
      "stateMutability": "view",
      "type": "function"
    },
    {
      "inputs": [
        {
          "internalType": "uint256",
          "name": "tokenId",
          "type": "uint256"
        }
      ],
      "name": "tokenURI",
      "outputs": [
        {
          "internalType": "string",
          "name": "",
          "type": "string"
        }
      ],
      "stateMutability": "view",
      "type": "function"
    },
    {
      "inputs": [
        {
          "internalType": "address",
          "name": "from",
          "type": "address"
        },
        {
          "internalType": "address",
          "name": "to",
          "type": "address"
        },
        {
          "internalType": "uint256",
          "name": "tokenId",
          "type": "uint256"
        }
      ],
      "name": "transferFrom",
      "outputs": [],
      "stateMutability": "nonpayable",
      "type": "function"
    }
  ],
  "bytecode": "0x60806040523480156200001157600080fd5b50604080518082018252601281527114dd1bd8dad05b1b1bd8d85d1a5bdb93919560721b60208083019182528351808501909452600484526314d0519560e21b908401528151919291620000689160009162000099565b5080516200007e90600190602084019062000099565b5050600880546001600160a01b03191633179055506200017c565b828054620000a7906200013f565b90600052602060002090601f016020900481019282620000cb576000855562000116565b82601f10620000e657805160ff191683800117855562000116565b8280016001018555821562000116579182015b8281111562000116578251825591602001919060010190620000f9565b506200012492915062000128565b5090565b5b8082111562000124576000815560010162000129565b600181811c908216806200015457607f821691505b602082108114156200017657634e487b7160e01b600052602260045260246000fd5b50919050565b611642806200018c6000396000f3fe608060405234801561001057600080fd5b50600436106100f55760003560e01c806370a0823111610097578063b88d4fde11610066578063b88d4fde146101ff578063c87b56dd14610212578063e985e9c514610225578063eacabe141461026157600080fd5b806370a08231146101b05780638da5cb5b146101d157806395d89b41146101e4578063a22cb465146101ec57600080fd5b8063095ea7b3116100d3578063095ea7b31461016257806323b872dd1461017757806342842e0e1461018a5780636352211e1461019d57600080fd5b806301ffc9a7146100fa57806306fdde0314610122578063081812fc14610137575b600080fd5b61010d6101083660046110dd565b610274565b60405190151581526020015b60405180910390f35b61012a6102c6565b6040516101199190611152565b61014a610145366004611165565b610358565b6040516001600160a01b039091168152602001610119565b61017561017036600461119a565b61037f565b005b6101756101853660046111c4565b61049a565b6101756101983660046111c4565b6104cb565b61014a6101ab366004611165565b6104e6565b6101c36101be366004611200565b610546565b604051908152602001610119565b60085461014a906001600160a01b031681565b61012a6105cc565b6101756101fa36600461121b565b6105db565b61017561020d3660046112e3565b6105ea565b61012a610220366004611165565b610622565b61010d61023336600461135f565b6001600160a01b03918216600090815260056020908152604080832093909416825291909152205460ff1690565b6101c361026f366004611392565b610733565b60006001600160e01b031982166380ac58cd60e01b14806102a557506001600160e01b03198216635b5e139f60e01b145b806102c057506301ffc9a760e01b6001600160e01b03198316145b92915050565b6060600080546102d5906113f4565b80601f0160208091040260200160405190810160405280929190818152602001828054610301906113f4565b801561034e5780601f106103235761010080835404028352916020019161034e565b820191906000526020600020905b81548152906001019060200180831161033157829003601f168201915b5050505050905090565b6000610363826107f6565b506000908152600460205260409020546001600160a01b031690565b600061038a826104e6565b9050806001600160a01b0316836001600160a01b031614156103fd5760405162461bcd60e51b815260206004820152602160248201527f4552433732313a20617070726f76616c20746f2063757272656e74206f776e656044820152603960f91b60648201526084015b60405180910390fd5b336001600160a01b038216148061041957506104198133610233565b61048b5760405162461bcd60e51b815260206004820152603e60248201527f4552433732313a20617070726f76652063616c6c6572206973206e6f7420746f60448201527f6b656e206f776e6572206e6f7220617070726f76656420666f7220616c6c000060648201526084016103f4565b6104958383610858565b505050565b6104a433826108c6565b6104c05760405162461bcd60e51b81526004016103f49061142f565b610495838383610944565b610495838383604051806020016040528060008152506105ea565b6000818152600260205260408120546001600160a01b0316806102c05760405162461bcd60e51b8152602060048201526018602482015277115490cdcc8c4e881a5b9d985b1a59081d1bdad95b88125160421b60448201526064016103f4565b60006001600160a01b0382166105b05760405162461bcd60e51b815260206004820152602960248201527f4552433732313a2061646472657373207a65726f206973206e6f7420612076616044820152683634b21037bbb732b960b91b60648201526084016103f4565b506001600160a01b031660009081526003602052604090205490565b6060600180546102d5906113f4565b6105e6338383610ae0565b5050565b6105f433836108c6565b6106105760405162461bcd60e51b81526004016103f49061142f565b61061c84848484610baf565b50505050565b606061062d826107f6565b60008281526006602052604081208054610646906113f4565b80601f0160208091040260200160405190810160405280929190818152602001828054610672906113f4565b80156106bf5780601f10610694576101008083540402835291602001916106bf565b820191906000526020600020905b8154815290600101906020018083116106a257829003601f168201915b5050505050905060006106dd60408051602081019091526000815290565b90508051600014156106f0575092915050565b81511561072257808260405160200161070a92919061147d565b60405160208183030381529060405292505050919050565b61072b84610be2565b949350505050565b6008546000906001600160a01b0316331461077c5760405162461bcd60e51b81526020600482015260096024820152682737ba1037bbb732b960b91b60448201526064016103f4565b826001600160a01b0381166107c75760405162461bcd60e51b81526020600482015260116024820152704e6f742076616c6964206164647265737360781b60448201526064016103f4565b6107d5600780546001019055565b60006107e060075490565b90506107ec8582610c56565b61072b8185610d98565b6000818152600260205260409020546001600160a01b03166108555760405162461bcd60e51b8152602060048201526018602482015277115490cdcc8c4e881a5b9d985b1a59081d1bdad95b88125160421b60448201526064016103f4565b50565b600081815260046020526040902080546001600160a01b0319166001600160a01b038416908117909155819061088d826104e6565b6001600160a01b03167f8c5be1e5ebec7d5bd14f71427d1e84f3dd0314c0f7b2291e5b200ac8c7c3b92560405160405180910390a45050565b6000806108d2836104e6565b9050806001600160a01b0316846001600160a01b0316148061091957506001600160a01b0380821660009081526005602090815260408083209388168352929052205460ff165b8061072b5750836001600160a01b031661093284610358565b6001600160a01b031614949350505050565b826001600160a01b0316610957826104e6565b6001600160a01b0316146109bb5760405162461bcd60e51b815260206004820152602560248201527f4552433732313a207472616e736665722066726f6d20696e636f72726563742060448201526437bbb732b960d91b60648201526084016103f4565b6001600160a01b038216610a1d5760405162461bcd60e51b8152602060048201526024808201527f4552433732313a207472616e7366657220746f20746865207a65726f206164646044820152637265737360e01b60648201526084016103f4565b610a28600082610858565b6001600160a01b0383166000908152600360205260408120805460019290610a519084906114c2565b90915550506001600160a01b0382166000908152600360205260408120805460019290610a7f9084906114d9565b909155505060008181526002602052604080822080546001600160a01b0319166001600160a01b0386811691821790925591518493918716917fddf252ad1be2c89b69c2b068fc378daa952ba7f163c4a11628f55a4df523b3ef91a4505050565b816001600160a01b0316836001600160a01b03161415610b425760405162461bcd60e51b815260206004820152601960248201527f4552433732313a20617070726f766520746f2063616c6c65720000000000000060448201526064016103f4565b6001600160a01b03838116600081815260056020908152604080832094871680845294825291829020805460ff191686151590811790915591519182527f17307eab39ab6107e8899845ad3d59bd9653f200f220920489ca2b5937696c31910160405180910390a3505050565b610bba848484610944565b610bc684848484610e32565b61061c5760405162461bcd60e51b81526004016103f4906114f1565b6060610bed826107f6565b6000610c0460408051602081019091526000815290565b90506000815111610c245760405180602001604052806000815250610c4f565b80610c2e84610f30565b604051602001610c3f92919061147d565b6040516020818303038152906040525b9392505050565b6001600160a01b038216610cac5760405162461bcd60e51b815260206004820181905260248201527f4552433732313a206d696e7420746f20746865207a65726f206164647265737360448201526064016103f4565b6000818152600260205260409020546001600160a01b031615610d115760405162461bcd60e51b815260206004820152601c60248201527f4552433732313a20746f6b656e20616c7265616479206d696e7465640000000060448201526064016103f4565b6001600160a01b0382166000908152600360205260408120805460019290610d3a9084906114d9565b909155505060008181526002602052604080822080546001600160a01b0319166001600160a01b03861690811790915590518392907fddf252ad1be2c89b69c2b068fc378daa952ba7f163c4a11628f55a4df523b3ef908290a45050565b6000828152600260205260409020546001600160a01b0316610e135760405162461bcd60e51b815260206004820152602e60248201527f45524337323155524953746f726167653a2055524920736574206f66206e6f6e60448201526d32bc34b9ba32b73a103a37b5b2b760911b60648201526084016103f4565b600082815260066020908152604090912082516104959284019061102e565b60006001600160a01b0384163b15610f2557604051630a85bd0160e11b81526001600160a01b0385169063150b7a0290610e76903390899088908890600401611543565b6020604051808303816000875af1925050508015610eb1575060408051601f3d908101601f19168201909252610eae91810190611580565b60015b610f0b573d808015610edf576040519150601f19603f3d011682016040523d82523d6000602084013e610ee4565b606091505b508051610f035760405162461bcd60e51b81526004016103f4906114f1565b805181602001fd5b6001600160e01b031916630a85bd0160e11b14905061072b565b506001949350505050565b606081610f545750506040805180820190915260018152600360fc1b602082015290565b8160005b8115610f7e5780610f688161159d565b9150610f779050600a836115ce565b9150610f58565b60008167ffffffffffffffff811115610f9957610f99611257565b6040519080825280601f01601f191660200182016040528015610fc3576020820181803683370190505b5090505b841561072b57610fd86001836114c2565b9150610fe5600a866115e2565b610ff09060306114d9565b60f81b818381518110611005576110056115f6565b60200101906001600160f81b031916908160001a905350611027600a866115ce565b9450610fc7565b82805461103a906113f4565b90600052602060002090601f01602090048101928261105c57600085556110a2565b82601f1061107557805160ff19168380011785556110a2565b828001600101855582156110a2579182015b828111156110a2578251825591602001919060010190611087565b506110ae9291506110b2565b5090565b5b808211156110ae57600081556001016110b3565b6001600160e01b03198116811461085557600080fd5b6000602082840312156110ef57600080fd5b8135610c4f816110c7565b60005b838110156111155781810151838201526020016110fd565b8381111561061c5750506000910152565b6000815180845261113e8160208601602086016110fa565b601f01601f19169290920160200192915050565b602081526000610c4f6020830184611126565b60006020828403121561117757600080fd5b5035919050565b80356001600160a01b038116811461119557600080fd5b919050565b600080604083850312156111ad57600080fd5b6111b68361117e565b946020939093013593505050565b6000806000606084860312156111d957600080fd5b6111e28461117e565b92506111f06020850161117e565b9150604084013590509250925092565b60006020828403121561121257600080fd5b610c4f8261117e565b6000806040838503121561122e57600080fd5b6112378361117e565b91506020830135801515811461124c57600080fd5b809150509250929050565b634e487b7160e01b600052604160045260246000fd5b600067ffffffffffffffff8084111561128857611288611257565b604051601f8501601f19908116603f011681019082821181831017156112b0576112b0611257565b816040528093508581528686860111156112c957600080fd5b858560208301376000602087830101525050509392505050565b600080600080608085870312156112f957600080fd5b6113028561117e565b93506113106020860161117e565b925060408501359150606085013567ffffffffffffffff81111561133357600080fd5b8501601f8101871361134457600080fd5b6113538782356020840161126d565b91505092959194509250565b6000806040838503121561137257600080fd5b61137b8361117e565b91506113896020840161117e565b90509250929050565b600080604083850312156113a557600080fd5b6113ae8361117e565b9150602083013567ffffffffffffffff8111156113ca57600080fd5b8301601f810185136113db57600080fd5b6113ea8582356020840161126d565b9150509250929050565b600181811c9082168061140857607f821691505b6020821081141561142957634e487b7160e01b600052602260045260246000fd5b50919050565b6020808252602e908201527f4552433732313a2063616c6c6572206973206e6f7420746f6b656e206f776e6560408201526d1c881b9bdc88185c1c1c9bdd995960921b606082015260800190565b6000835161148f8184602088016110fa565b8351908301906114a38183602088016110fa565b01949350505050565b634e487b7160e01b600052601160045260246000fd5b6000828210156114d4576114d46114ac565b500390565b600082198211156114ec576114ec6114ac565b500190565b60208082526032908201527f4552433732313a207472616e7366657220746f206e6f6e20455243373231526560408201527131b2b4bb32b91034b6b83632b6b2b73a32b960711b606082015260800190565b6001600160a01b038581168252841660208201526040810183905260806060820181905260009061157690830184611126565b9695505050505050565b60006020828403121561159257600080fd5b8151610c4f816110c7565b60006000198214156115b1576115b16114ac565b5060010190565b634e487b7160e01b600052601260045260246000fd5b6000826115dd576115dd6115b8565b500490565b6000826115f1576115f16115b8565b500690565b634e487b7160e01b600052603260045260246000fdfea2646970667358221220d652430f8e6dc14e16ba2703751588bf3303181f312bfad9c5611e4a58cae06264736f6c634300080c0033",
  "linkReferences": {},
  "deployedLinkReferences": {}
}