{
  "_format": "hh-sol-artifact-1",
  "contractName": "ZKPVerifier",
  "sourceName": "contracts/verifiers/ZKPVerifier.sol",
  "abi": [
    {
      "anonymous": false,
      "inputs": [
        {
          "indexed": true,
          "internalType": "address",
          "name": "previousOwner",
          "type": "address"
        },
        {
          "indexed": true,
          "internalType": "address",
          "name": "newOwner",
          "type": "address"
        }
      ],
      "name": "OwnershipTransferred",
      "type": "event"
    },
    {
      "inputs": [],
      "name": "getSupportedRequests",
      "outputs": [
        {
          "internalType": "uint64[]",
          "name": "arr",
          "type": "uint64[]"
        }
      ],
      "stateMutability": "view",
      "type": "function"
    },
    {
      "inputs": [
        {
          "internalType": "uint64",
          "name": "requestId",
          "type": "uint64"
        }
      ],
      "name": "getZKPRequest",
      "outputs": [
        {
          "components": [
            {
              "internalType": "uint256",
              "name": "schema",
              "type": "uint256"
            },
            {
              "internalType": "uint256",
              "name": "slotIndex",
              "type": "uint256"
            },
            {
              "internalType": "uint256",
              "name": "operator",
              "type": "uint256"
            },
            {
              "internalType": "uint256[]",
              "name": "value",
              "type": "uint256[]"
            },
            {
              "internalType": "string",
              "name": "circuitId",
              "type": "string"
            }
          ],
          "internalType": "struct ICircuitValidator.CircuitQuery",
          "name": "",
          "type": "tuple"
        }
      ],
      "stateMutability": "view",
      "type": "function"
    },
    {
      "inputs": [],
      "name": "owner",
      "outputs": [
        {
          "internalType": "address",
          "name": "",
          "type": "address"
        }
      ],
      "stateMutability": "view",
      "type": "function"
    },
    {
      "inputs": [
        {
          "internalType": "address",
          "name": "",
          "type": "address"
        },
        {
          "internalType": "uint64",
          "name": "",
          "type": "uint64"
        }
      ],
      "name": "proofs",
      "outputs": [
        {
          "internalType": "bool",
          "name": "",
          "type": "bool"
        }
      ],
      "stateMutability": "view",
      "type": "function"
    },
    {
      "inputs": [],
      "name": "renounceOwnership",
      "outputs": [],
      "stateMutability": "nonpayable",
      "type": "function"
    },
    {
      "inputs": [
        {
          "internalType": "uint64",
          "name": "",
          "type": "uint64"
        }
      ],
      "name": "requestQueries",
      "outputs": [
        {
          "internalType": "uint256",
          "name": "schema",
          "type": "uint256"
        },
        {
          "internalType": "uint256",
          "name": "slotIndex",
          "type": "uint256"
        },
        {
          "internalType": "uint256",
          "name": "operator",
          "type": "uint256"
        },
        {
          "internalType": "string",
          "name": "circuitId",
          "type": "string"
        }
      ],
      "stateMutability": "view",
      "type": "function"
    },
    {
      "inputs": [
        {
          "internalType": "uint64",
          "name": "",
          "type": "uint64"
        }
      ],
      "name": "requestValidators",
      "outputs": [
        {
          "internalType": "contract ICircuitValidator",
          "name": "",
          "type": "address"
        }
      ],
      "stateMutability": "view",
      "type": "function"
    },
    {
      "inputs": [
        {
          "internalType": "uint64",
          "name": "requestId",
          "type": "uint64"
        },
        {
          "internalType": "contract ICircuitValidator",
          "name": "validator",
          "type": "address"
        },
        {
          "components": [
            {
              "internalType": "uint256",
              "name": "schema",
              "type": "uint256"
            },
            {
              "internalType": "uint256",
              "name": "slotIndex",
              "type": "uint256"
            },
            {
              "internalType": "uint256",
              "name": "operator",
              "type": "uint256"
            },
            {
              "internalType": "uint256[]",
              "name": "value",
              "type": "uint256[]"
            },
            {
              "internalType": "string",
              "name": "circuitId",
              "type": "string"
            }
          ],
          "internalType": "struct ICircuitValidator.CircuitQuery",
          "name": "query",
          "type": "tuple"
        }
      ],
      "name": "setZKPRequest",
      "outputs": [
        {
          "internalType": "bool",
          "name": "",
          "type": "bool"
        }
      ],
      "stateMutability": "nonpayable",
      "type": "function"
    },
    {
      "inputs": [
        {
          "internalType": "uint64",
          "name": "requestId",
          "type": "uint64"
        },
        {
          "internalType": "uint256[]",
          "name": "inputs",
          "type": "uint256[]"
        },
        {
          "internalType": "uint256[2]",
          "name": "a",
          "type": "uint256[2]"
        },
        {
          "internalType": "uint256[2][2]",
          "name": "b",
          "type": "uint256[2][2]"
        },
        {
          "internalType": "uint256[2]",
          "name": "c",
          "type": "uint256[2]"
        }
      ],
      "name": "submitZKPResponse",
      "outputs": [
        {
          "internalType": "bool",
          "name": "",
          "type": "bool"
        }
      ],
      "stateMutability": "nonpayable",
      "type": "function"
    },
    {
      "inputs": [
        {
          "internalType": "uint256",
          "name": "",
          "type": "uint256"
        }
      ],
      "name": "supportedRequests",
      "outputs": [
        {
          "internalType": "uint64",
          "name": "",
          "type": "uint64"
        }
      ],
      "stateMutability": "view",
      "type": "function"
    },
    {
      "inputs": [
        {
          "internalType": "address",
          "name": "newOwner",
          "type": "address"
        }
      ],
      "name": "transferOwnership",
      "outputs": [],
      "stateMutability": "nonpayable",
      "type": "function"
    }
  ],
  "bytecode": "0x608060405234801561001057600080fd5b5061001a3361001f565b61006f565b600080546001600160a01b038381166001600160a01b0319831681178455604051919092169283917f8be0079c531659141344cd1fd0a4f28419497f9722a3daafe3b4186f6b6457e09190a35050565b6112458061007e6000396000f3fe608060405234801561001057600080fd5b50600436106100a95760003560e01c8063b45c0fdf11610071578063b45c0fdf14610147578063b68967e214610185578063c76d084514610198578063f1435326146101b8578063f2fde38b146101e3578063fee207e6146101f657600080fd5b806337ba9523146100ae578063715018a6146100cc5780638da5cb5b146100d657806396bf4741146100fb578063a87231141461011e575b600080fd5b6100b6610209565b6040516100c39190610a88565b60405180910390f35b6100d4610293565b005b6000546001600160a01b03165b6040516001600160a01b0390911681526020016100c3565b61010e610109366004610af1565b6102a7565b6040516100c39493929190610b62565b6100e361012c366004610af1565b6003602052600090815260409020546001600160a01b031681565b610175610155366004610ba6565b600160209081526000928352604080842090915290825290205460ff1681565b60405190151581526020016100c3565b610175610193366004610d3a565b61035a565b6101ab6101a6366004610af1565b610572565b6040516100c39190610e3f565b6101cb6101c6366004610e9f565b6106cc565b6040516001600160401b0390911681526020016100c3565b6100d46101f1366004610eb8565b610709565b610175610204366004610ed5565b610782565b6060600480548060200260200160405190810160405280929190818152602001828054801561028957602002820191906000526020600020906000905b82829054906101000a90046001600160401b03166001600160401b0316815260200190600801906020826007010492830192600103820291508084116102465790505b5050505050905090565b61029b61090b565b6102a56000610965565b565b6002602081905260009182526040909120805460018201549282015460048301805492949391926102d790610ffc565b80601f016020809104026020016040519081016040528092919081815260200182805461030390610ffc565b80156103505780601f1061032557610100808354040283529160200191610350565b820191906000526020600020905b81548152906001019060200180831161033357829003601f168201915b5050505050905084565b6001600160401b0385166000908152600360205260408120546001600160a01b03166103de5760405162461bcd60e51b815260206004820152602860248201527f76616c696461746f72206973206e6f742073657420666f7220746869732072656044820152671c5d595cdd081a5960c21b60648201526084015b60405180910390fd5b6001600160401b03861660009081526002602052604090205461044f5760405162461bcd60e51b8152602060048201526024808201527f7175657279206973206e6f742073657420666f722074686973207265717565736044820152631d081a5960e21b60648201526084016103d5565b6001600160401b03861660009081526003602090815260408083205460029092529182902091516319f8754160e21b81526001600160a01b03909116916367e1d504916104a791899189918991899190600401611100565b602060405180830381865afa1580156104c4573d6000803e3d6000fd5b505050506040513d601f19601f820116820180604052508101906104e891906111ed565b6105345760405162461bcd60e51b815260206004820152601b60248201527f70726f6f6620726573706f6e7365206973206e6f742076616c6964000000000060448201526064016103d5565b3360009081526001602081815260408084206001600160401b038b1685528252909220805460ff191690911790556003905250600195945050505050565b6105a46040518060a0016040528060008152602001600081526020016000815260200160608152602001606081525090565b6001600160401b038216600090815260026020818152604092839020835160a08101855281548152600182015481840152928101548385015260038101805485518185028101850190965280865293949193606086019383018282801561062a57602002820191906000526020600020905b815481526020019060010190808311610616575b5050505050815260200160048201805461064390610ffc565b80601f016020809104026020016040519081016040528092919081815260200182805461066f90610ffc565b80156106bc5780601f10610691576101008083540402835291602001916106bc565b820191906000526020600020905b81548152906001019060200180831161069f57829003601f168201915b5050505050815250509050919050565b600481815481106106dc57600080fd5b9060005260206000209060049182820401919006600802915054906101000a90046001600160401b031681565b61071161090b565b6001600160a01b0381166107765760405162461bcd60e51b815260206004820152602660248201527f4f776e61626c653a206e6577206f776e657220697320746865207a65726f206160448201526564647265737360d01b60648201526084016103d5565b61077f81610965565b50565b600061078c61090b565b6001600160401b0384166000908152600360205260409020546001600160a01b0316610810576004805460018101825560008290529081047f8a35acfbc15ff81a39ae7d344fd709f28e8600b4aa8c65c6b64bfe7fe36bd19b0180546001600160401b0380881660086003909516949094026101000a938402930219169190911790555b60608201516001600160401b0385166000908152600260209081526040909120825161084593600390920192909101906109b5565b506040808301516001600160401b038616600090815260026020818152939091209081019190915560808401518051610888936004909301929190910190610a00565b506020808301516001600160401b03861660009081526002835260409020600181019190915583518155608084015180516108cd936004909301929190910190610a00565b50506001600160401b038316600090815260036020526040902080546001600160a01b0384166001600160a01b031990911617905560019392505050565b6000546001600160a01b031633146102a55760405162461bcd60e51b815260206004820181905260248201527f4f776e61626c653a2063616c6c6572206973206e6f7420746865206f776e657260448201526064016103d5565b600080546001600160a01b038381166001600160a01b0319831681178455604051919092169283917f8be0079c531659141344cd1fd0a4f28419497f9722a3daafe3b4186f6b6457e09190a35050565b8280548282559060005260206000209081019282156109f0579160200282015b828111156109f05782518255916020019190600101906109d5565b506109fc929150610a73565b5090565b828054610a0c90610ffc565b90600052602060002090601f016020900481019282610a2e57600085556109f0565b82601f10610a4757805160ff19168380011785556109f0565b828001600101855582156109f057918201828111156109f05782518255916020019190600101906109d5565b5b808211156109fc5760008155600101610a74565b6020808252825182820181905260009190848201906040850190845b81811015610ac95783516001600160401b031683529284019291840191600101610aa4565b50909695505050505050565b80356001600160401b0381168114610aec57600080fd5b919050565b600060208284031215610b0357600080fd5b610b0c82610ad5565b9392505050565b60008151808452602060005b82811015610b3a578481018201518682018301528101610b1f565b82811115610b4b5760008284880101525b5080601f19601f8401168601019250505092915050565b848152836020820152826040820152608060608201526000610b876080830184610b13565b9695505050505050565b6001600160a01b038116811461077f57600080fd5b60008060408385031215610bb957600080fd5b8235610bc481610b91565b9150610bd260208401610ad5565b90509250929050565b634e487b7160e01b600052604160045260246000fd5b60405160a081016001600160401b0381118282101715610c1357610c13610bdb565b60405290565b604080519081016001600160401b0381118282101715610c1357610c13610bdb565b604051601f8201601f191681016001600160401b0381118282101715610c6357610c63610bdb565b604052919050565b600082601f830112610c7c57600080fd5b813560206001600160401b03821115610c9757610c97610bdb565b8160051b610ca6828201610c3b565b9283528481018201928281019087851115610cc057600080fd5b83870192505b84831015610cdf57823582529183019190830190610cc6565b979650505050505050565b600082601f830112610cfb57600080fd5b610d03610c19565b806040840185811115610d1557600080fd5b845b81811015610d2f578035845260209384019301610d17565b509095945050505050565b60008060008060006101408688031215610d5357600080fd5b610d5c86610ad5565b94506020808701356001600160401b03811115610d7857600080fd5b610d8489828a01610c6b565b9550506040610d9589828a01610cea565b945088609f890112610da657600080fd5b610dae610c19565b806101008a018b811115610dc157600080fd5b60808b015b81811015610de557610dd88d82610cea565b8452928501928401610dc6565b50819650610df38c82610cea565b955050505050509295509295909350565b600081518084526020808501945080840160005b83811015610e3457815187529582019590820190600101610e18565b509495945050505050565b602081528151602082015260208201516040820152604082015160608201526000606083015160a06080840152610e7960c0840182610e04565b90506080840151601f198483030160a0850152610e968282610b13565b95945050505050565b600060208284031215610eb157600080fd5b5035919050565b600060208284031215610eca57600080fd5b8135610b0c81610b91565b600080600060608486031215610eea57600080fd5b610ef384610ad5565b9250602080850135610f0481610b91565b925060408501356001600160401b0380821115610f2057600080fd5b9086019060a08289031215610f3457600080fd5b610f3c610bf1565b82358152838301358482015260408301356040820152606083013582811115610f6457600080fd5b610f708a828601610c6b565b606083015250608083013582811115610f8857600080fd5b80840193505088601f840112610f9d57600080fd5b823582811115610faf57610faf610bdb565b610fc1601f8201601f19168601610c3b565b92508083528985828601011115610fd757600080fd5b8085850186850137600085828501015250816080820152809450505050509250925092565b600181811c9082168061101057607f821691505b6020821081141561103157634e487b7160e01b600052602260045260246000fd5b50919050565b8060005b600281101561105a57815184526020938401939091019060010161103b565b50505050565b8054600090600181811c908083168061107a57607f831692505b602080841082141561109c57634e487b7160e01b600052602260045260246000fd5b838852602088018280156110b757600181146110c8576110f3565b60ff198716825282820197506110f3565b60008981526020902060005b878110156110ed578154848201529086019084016110d4565b83019850505b5050505050505092915050565b600061014080835261111481840189610e04565b9050602061112481850189611037565b606084018760005b600281101561115357611140838351611037565b604092909201919083019060010161112c565b50505061116360e0850187611037565b83820361012085015284548252600180860154828401526002860154604084015260a0606084018190526003870180549185018290526000908152838120929160c08601905b808310156111c657845482529383019391830191908501906111a9565b5085810360808701526111dc8160048b01611060565b9d9c50505050505050505050505050565b6000602082840312156111ff57600080fd5b81518015158114610b0c57600080fdfea264697066735822122092369f2b3dd5d8d8e715582fb62582a99484c6b5be4bf297cd817248890f91bf64736f6c634300080c0033",
  "linkReferences": {},
  "deployedLinkReferences": {}
}