{
  "_format": "hh-sol-artifact-1",
  "contractName": "Practice",
  "sourceName": "contracts/Practice.sol",
  "abi": [
    {
      "inputs": [
        {
          "internalType": "string",
          "name": "_name",
          "type": "string"
        }
      ],
      "stateMutability": "nonpayable",
      "type": "constructor"
    },
    {
      "inputs": [
        {
          "internalType": "uint256",
          "name": "doctor_id",
          "type": "uint256"
        },
        {
          "internalType": "uint256",
          "name": "patient_id",
          "type": "uint256"
        }
      ],
      "name": "createAppointment",
      "outputs": [],
      "stateMutability": "nonpayable",
      "type": "function"
    },
    {
      "inputs": [
        {
          "internalType": "address",
          "name": "prescriptionContractAddress",
          "type": "address"
        },
        {
          "internalType": "address",
          "name": "brokerAddress",
          "type": "address"
        },
        {
          "internalType": "string",
          "name": "tokenURI",
          "type": "string"
        }
      ],
      "name": "createPrescriptionToken",
      "outputs": [],
      "stateMutability": "nonpayable",
      "type": "function"
    },
    {
      "inputs": [],
      "name": "fetchDoctors",
      "outputs": [
        {
          "components": [
            {
              "internalType": "string",
              "name": "username",
              "type": "string"
            },
            {
              "internalType": "string",
              "name": "password",
              "type": "string"
            },
            {
              "internalType": "bool",
              "name": "is_logged_in",
              "type": "bool"
            },
            {
              "internalType": "uint256",
              "name": "id",
              "type": "uint256"
            }
          ],
          "internalType": "struct Practice.Doctor[]",
          "name": "",
          "type": "tuple[]"
        }
      ],
      "stateMutability": "view",
      "type": "function"
    },
    {
      "inputs": [
        {
          "internalType": "uint256",
          "name": "doctor_id",
          "type": "uint256"
        }
      ],
      "name": "getDoctorAppointments",
      "outputs": [
        {
          "components": [
            {
              "internalType": "uint256",
              "name": "doctor_id",
              "type": "uint256"
            },
            {
              "internalType": "uint256",
              "name": "patient_id",
              "type": "uint256"
            }
          ],
          "internalType": "struct Practice.Appointment[]",
          "name": "",
          "type": "tuple[]"
        }
      ],
      "stateMutability": "view",
      "type": "function"
    },
    {
      "inputs": [
        {
          "internalType": "string",
          "name": "username",
          "type": "string"
        },
        {
          "internalType": "string",
          "name": "passwordHash",
          "type": "string"
        }
      ],
      "name": "logIn",
      "outputs": [
        {
          "internalType": "bool",
          "name": "",
          "type": "bool"
        }
      ],
      "stateMutability": "nonpayable",
      "type": "function"
    },
    {
      "inputs": [],
      "name": "name",
      "outputs": [
        {
          "internalType": "string",
          "name": "",
          "type": "string"
        }
      ],
      "stateMutability": "view",
      "type": "function"
    },
    {
      "inputs": [],
      "name": "owner",
      "outputs": [
        {
          "internalType": "address",
          "name": "",
          "type": "address"
        }
      ],
      "stateMutability": "view",
      "type": "function"
    },
    {
      "inputs": [
        {
          "internalType": "string",
          "name": "username",
          "type": "string"
        },
        {
          "internalType": "string",
          "name": "passwordHash",
          "type": "string"
        }
      ],
      "name": "signUp",
      "outputs": [],
      "stateMutability": "nonpayable",
      "type": "function"
    },
    {
      "inputs": [
        {
          "internalType": "address",
          "name": "newOwner",
          "type": "address"
        }
      ],
      "name": "transferOwnership",
      "outputs": [],
      "stateMutability": "nonpayable",
      "type": "function"
    },
    {
      "inputs": [
        {
          "internalType": "string",
          "name": "_name",
          "type": "string"
        }
      ],
      "name": "updateName",
      "outputs": [],
      "stateMutability": "nonpayable",
      "type": "function"
    }
  ],
  "bytecode": "0x60806040523480156200001157600080fd5b5060405162000f8338038062000f8383398101604081905262000034916200011f565b80516200004990600090602084019062000063565b5050600180546001600160a01b0319163317905562000238565b8280546200007190620001fb565b90600052602060002090601f016020900481019282620000955760008555620000e0565b82601f10620000b057805160ff1916838001178555620000e0565b82800160010185558215620000e0579182015b82811115620000e0578251825591602001919060010190620000c3565b50620000ee929150620000f2565b5090565b5b80821115620000ee5760008155600101620000f3565b634e487b7160e01b600052604160045260246000fd5b600060208083850312156200013357600080fd5b82516001600160401b03808211156200014b57600080fd5b818501915085601f8301126200016057600080fd5b81518181111562000175576200017562000109565b604051601f8201601f19908116603f01168101908382118183101715620001a057620001a062000109565b816040528281528886848701011115620001b957600080fd5b600093505b82841015620001dd5784840186015181850187015292850192620001be565b82841115620001ef5760008684830101525b98975050505050505050565b600181811c908216806200021057607f821691505b602082108114156200023257634e487b7160e01b600052602260045260246000fd5b50919050565b610d3b80620002486000396000f3fe608060405234801561001057600080fd5b506004361061009e5760003560e01c80638da5cb5b116100665780638da5cb5b1461011f578063a00c51271461014a578063a469a3321461016a578063cbf007f31461017d578063f2fde38b1461019257600080fd5b806306fdde03146100a357806310a2647f146100c15780631359fd0e146100d65780631cbfc466146100e957806384da92a71461010c575b600080fd5b6100ab6101a5565b6040516100b8919061085c565b60405180910390f35b6100d46100cf366004610935565b610233565b005b6100d46100e4366004610993565b6102af565b6100fc6100f73660046109b5565b6102f9565b60405190151581526020016100b8565b6100d461011a366004610a19565b61036f565b600154610132906001600160a01b031681565b6040516001600160a01b0390911681526020016100b8565b61015d610158366004610a56565b610386565b6040516100b89190610a6f565b6100d46101783660046109b5565b610480565b6101856104f4565b6040516100b89190610abe565b6100d46101a0366004610b5b565b61072e565b600080546101b290610b76565b80601f01602080910402602001604051908101604052809291908181526020018280546101de90610b76565b801561022b5780601f106102005761010080835404028352916020019161022b565b820191906000526020600020905b81548152906001019060200180831161020e57829003601f168201915b505050505081565b604051633ab2af8560e21b815283906001600160a01b0382169063eacabe14906102639086908690600401610bb1565b6020604051808303816000875af1158015610282573d6000803e3d6000fd5b505050506040513d601f19601f820116820180604052508101906102a69190610bd5565b60055550505050565b6001546001600160a01b031633146102c657600080fd5b6102d4600380546001019055565b60006102df60035490565b600090815260086020526040902092835550600190910155565b600080600760006006866040516103109190610bee565b908152602001604051809103902054815260200190815260200160002090506000816001016040516103429190610c0a565b604051908190039020845160208601206002909301805460ff191693909114928317905550905092915050565b8051610382906000906020840190610767565b5050565b6060600061039360035490565b905060008167ffffffffffffffff8111156103b0576103b0610892565b6040519080825280602002602001820160405280156103f557816020015b60408051808201909152600080825260208201528152602001906001900390816103ce5790505b50905060005b82811015610478576000610410826001610cbc565b600081815260086020526040902080549192509087141561046357604080518082019091528154815260018201546020820152845185908590811061045757610457610cd4565b60200260200101819052505b5050808061047090610cea565b9150506103fb565b509392505050565b6001546001600160a01b0316331461049757600080fd5b6104a5600280546001019055565b60006104b060025490565b6000818152600760209081526040909120600381018390558451929350916104e091600184019190860190610767565b50600201805460ff19166001179055505050565b6060600061050160025490565b905060008167ffffffffffffffff81111561051e5761051e610892565b60405190808252806020026020018201604052801561057c57816020015b61056960405180608001604052806060815260200160608152602001600015158152602001600081525090565b81526020019060019003908161053c5790505b50905060005b82811015610727576000610597826001610cbc565b600081815260076020526040908190208151608081019092528054929350918290829082906105c590610b76565b80601f01602080910402602001604051908101604052809291908181526020018280546105f190610b76565b801561063e5780601f106106135761010080835404028352916020019161063e565b820191906000526020600020905b81548152906001019060200180831161062157829003601f168201915b5050505050815260200160018201805461065790610b76565b80601f016020809104026020016040519081016040528092919081815260200182805461068390610b76565b80156106d05780601f106106a5576101008083540402835291602001916106d0565b820191906000526020600020905b8154815290600101906020018083116106b357829003601f168201915b5050509183525050600282015460ff1615156020820152600390910154604090910152845185908590811061070757610707610cd4565b60200260200101819052505050808061071f90610cea565b915050610582565b5092915050565b6001546001600160a01b0316331461074557600080fd5b600180546001600160a01b0319166001600160a01b0392909216919091179055565b82805461077390610b76565b90600052602060002090601f01602090048101928261079557600085556107db565b82601f106107ae57805160ff19168380011785556107db565b828001600101855582156107db579182015b828111156107db5782518255916020019190600101906107c0565b506107e79291506107eb565b5090565b5b808211156107e757600081556001016107ec565b60005b8381101561081b578181015183820152602001610803565b8381111561082a576000848401525b50505050565b60008151808452610848816020860160208601610800565b601f01601f19169290920160200192915050565b60208152600061086f6020830184610830565b9392505050565b80356001600160a01b038116811461088d57600080fd5b919050565b634e487b7160e01b600052604160045260246000fd5b600082601f8301126108b957600080fd5b813567ffffffffffffffff808211156108d4576108d4610892565b604051601f8301601f19908116603f011681019082821181831017156108fc576108fc610892565b8160405283815286602085880101111561091557600080fd5b836020870160208301376000602085830101528094505050505092915050565b60008060006060848603121561094a57600080fd5b61095384610876565b925061096160208501610876565b9150604084013567ffffffffffffffff81111561097d57600080fd5b610989868287016108a8565b9150509250925092565b600080604083850312156109a657600080fd5b50508035926020909101359150565b600080604083850312156109c857600080fd5b823567ffffffffffffffff808211156109e057600080fd5b6109ec868387016108a8565b93506020850135915080821115610a0257600080fd5b50610a0f858286016108a8565b9150509250929050565b600060208284031215610a2b57600080fd5b813567ffffffffffffffff811115610a4257600080fd5b610a4e848285016108a8565b949350505050565b600060208284031215610a6857600080fd5b5035919050565b602080825282518282018190526000919060409081850190868401855b82811015610ab157815180518552860151868501529284019290850190600101610a8c565b5091979650505050505050565b60006020808301818452808551808352604092508286019150828160051b87010184880160005b83811015610b4d57603f19898403018552815160808151818652610b0b82870182610830565b915050888201518582038a870152610b238282610830565b838a01511515878b0152606093840151939096019290925250509386019390860190600101610ae5565b509098975050505050505050565b600060208284031215610b6d57600080fd5b61086f82610876565b600181811c90821680610b8a57607f821691505b60208210811415610bab57634e487b7160e01b600052602260045260246000fd5b50919050565b6001600160a01b0383168152604060208201819052600090610a4e90830184610830565b600060208284031215610be757600080fd5b5051919050565b60008251610c00818460208701610800565b9190910192915050565b600080835481600182811c915080831680610c2657607f831692505b6020808410821415610c4657634e487b7160e01b86526022600452602486fd5b818015610c5a5760018114610c6b57610c98565b60ff19861689528489019650610c98565b60008a81526020902060005b86811015610c905781548b820152908501908301610c77565b505084890196505b509498975050505050505050565b634e487b7160e01b600052601160045260246000fd5b60008219821115610ccf57610ccf610ca6565b500190565b634e487b7160e01b600052603260045260246000fd5b6000600019821415610cfe57610cfe610ca6565b506001019056fea26469706673582212209f4ec6eef922babedd07399ec2176d9924052c67b178f970dc24166d6d49a5a964736f6c634300080c0033",
  "linkReferences": {},
  "deployedLinkReferences": {}
}