{
  "_format": "hh-sol-artifact-1",
  "contractName": "PatientVerifier",
  "sourceName": "contracts/PatientAuth.sol",
  "abi": [
    {
      "inputs": [
        {
          "internalType": "string",
          "name": "name_",
          "type": "string"
        },
        {
          "internalType": "string",
          "name": "symbol_",
          "type": "string"
        }
      ],
      "stateMutability": "nonpayable",
      "type": "constructor"
    },
    {
      "anonymous": false,
      "inputs": [
        {
          "indexed": true,
          "internalType": "address",
          "name": "owner",
          "type": "address"
        },
        {
          "indexed": true,
          "internalType": "address",
          "name": "approved",
          "type": "address"
        },
        {
          "indexed": true,
          "internalType": "uint256",
          "name": "tokenId",
          "type": "uint256"
        }
      ],
      "name": "Approval",
      "type": "event"
    },
    {
      "anonymous": false,
      "inputs": [
        {
          "indexed": true,
          "internalType": "address",
          "name": "owner",
          "type": "address"
        },
        {
          "indexed": true,
          "internalType": "address",
          "name": "operator",
          "type": "address"
        },
        {
          "indexed": false,
          "internalType": "bool",
          "name": "approved",
          "type": "bool"
        }
      ],
      "name": "ApprovalForAll",
      "type": "event"
    },
    {
      "anonymous": false,
      "inputs": [
        {
          "indexed": true,
          "internalType": "address",
          "name": "previousOwner",
          "type": "address"
        },
        {
          "indexed": true,
          "internalType": "address",
          "name": "newOwner",
          "type": "address"
        }
      ],
      "name": "OwnershipTransferred",
      "type": "event"
    },
    {
      "anonymous": false,
      "inputs": [
        {
          "indexed": true,
          "internalType": "address",
          "name": "from",
          "type": "address"
        },
        {
          "indexed": true,
          "internalType": "address",
          "name": "to",
          "type": "address"
        },
        {
          "indexed": true,
          "internalType": "uint256",
          "name": "tokenId",
          "type": "uint256"
        }
      ],
      "name": "Transfer",
      "type": "event"
    },
    {
      "inputs": [],
      "name": "TRANSFER_REQUEST_ID",
      "outputs": [
        {
          "internalType": "uint64",
          "name": "",
          "type": "uint64"
        }
      ],
      "stateMutability": "view",
      "type": "function"
    },
    {
      "inputs": [
        {
          "internalType": "address",
          "name": "",
          "type": "address"
        }
      ],
      "name": "addressToId",
      "outputs": [
        {
          "internalType": "uint256",
          "name": "",
          "type": "uint256"
        }
      ],
      "stateMutability": "view",
      "type": "function"
    },
    {
      "inputs": [
        {
          "internalType": "address",
          "name": "to",
          "type": "address"
        },
        {
          "internalType": "uint256",
          "name": "tokenId",
          "type": "uint256"
        }
      ],
      "name": "approve",
      "outputs": [],
      "stateMutability": "nonpayable",
      "type": "function"
    },
    {
      "inputs": [
        {
          "internalType": "address",
          "name": "owner",
          "type": "address"
        }
      ],
      "name": "balanceOf",
      "outputs": [
        {
          "internalType": "uint256",
          "name": "",
          "type": "uint256"
        }
      ],
      "stateMutability": "view",
      "type": "function"
    },
    {
      "inputs": [
        {
          "internalType": "uint256",
          "name": "tokenId",
          "type": "uint256"
        }
      ],
      "name": "getApproved",
      "outputs": [
        {
          "internalType": "address",
          "name": "",
          "type": "address"
        }
      ],
      "stateMutability": "view",
      "type": "function"
    },
    {
      "inputs": [],
      "name": "getSupportedRequests",
      "outputs": [
        {
          "internalType": "uint64[]",
          "name": "arr",
          "type": "uint64[]"
        }
      ],
      "stateMutability": "view",
      "type": "function"
    },
    {
      "inputs": [
        {
          "internalType": "uint64",
          "name": "requestId",
          "type": "uint64"
        }
      ],
      "name": "getZKPRequest",
      "outputs": [
        {
          "components": [
            {
              "internalType": "uint256",
              "name": "schema",
              "type": "uint256"
            },
            {
              "internalType": "uint256",
              "name": "slotIndex",
              "type": "uint256"
            },
            {
              "internalType": "uint256",
              "name": "operator",
              "type": "uint256"
            },
            {
              "internalType": "uint256[]",
              "name": "value",
              "type": "uint256[]"
            },
            {
              "internalType": "string",
              "name": "circuitId",
              "type": "string"
            }
          ],
          "internalType": "struct ICircuitValidator.CircuitQuery",
          "name": "",
          "type": "tuple"
        }
      ],
      "stateMutability": "view",
      "type": "function"
    },
    {
      "inputs": [
        {
          "internalType": "uint256",
          "name": "",
          "type": "uint256"
        }
      ],
      "name": "idToAddress",
      "outputs": [
        {
          "internalType": "address",
          "name": "",
          "type": "address"
        }
      ],
      "stateMutability": "view",
      "type": "function"
    },
    {
      "inputs": [
        {
          "internalType": "address",
          "name": "owner",
          "type": "address"
        },
        {
          "internalType": "address",
          "name": "operator",
          "type": "address"
        }
      ],
      "name": "isApprovedForAll",
      "outputs": [
        {
          "internalType": "bool",
          "name": "",
          "type": "bool"
        }
      ],
      "stateMutability": "view",
      "type": "function"
    },
    {
      "inputs": [],
      "name": "name",
      "outputs": [
        {
          "internalType": "string",
          "name": "",
          "type": "string"
        }
      ],
      "stateMutability": "view",
      "type": "function"
    },
    {
      "inputs": [],
      "name": "owner",
      "outputs": [
        {
          "internalType": "address",
          "name": "",
          "type": "address"
        }
      ],
      "stateMutability": "view",
      "type": "function"
    },
    {
      "inputs": [
        {
          "internalType": "uint256",
          "name": "tokenId",
          "type": "uint256"
        }
      ],
      "name": "ownerOf",
      "outputs": [
        {
          "internalType": "address",
          "name": "",
          "type": "address"
        }
      ],
      "stateMutability": "view",
      "type": "function"
    },
    {
      "inputs": [
        {
          "internalType": "address",
          "name": "",
          "type": "address"
        },
        {
          "internalType": "uint64",
          "name": "",
          "type": "uint64"
        }
      ],
      "name": "proofs",
      "outputs": [
        {
          "internalType": "bool",
          "name": "",
          "type": "bool"
        }
      ],
      "stateMutability": "view",
      "type": "function"
    },
    {
      "inputs": [],
      "name": "renounceOwnership",
      "outputs": [],
      "stateMutability": "nonpayable",
      "type": "function"
    },
    {
      "inputs": [
        {
          "internalType": "uint64",
          "name": "",
          "type": "uint64"
        }
      ],
      "name": "requestQueries",
      "outputs": [
        {
          "internalType": "uint256",
          "name": "schema",
          "type": "uint256"
        },
        {
          "internalType": "uint256",
          "name": "slotIndex",
          "type": "uint256"
        },
        {
          "internalType": "uint256",
          "name": "operator",
          "type": "uint256"
        },
        {
          "internalType": "string",
          "name": "circuitId",
          "type": "string"
        }
      ],
      "stateMutability": "view",
      "type": "function"
    },
    {
      "inputs": [
        {
          "internalType": "uint64",
          "name": "",
          "type": "uint64"
        }
      ],
      "name": "requestValidators",
      "outputs": [
        {
          "internalType": "contract ICircuitValidator",
          "name": "",
          "type": "address"
        }
      ],
      "stateMutability": "view",
      "type": "function"
    },
    {
      "inputs": [
        {
          "internalType": "address",
          "name": "from",
          "type": "address"
        },
        {
          "internalType": "address",
          "name": "to",
          "type": "address"
        },
        {
          "internalType": "uint256",
          "name": "tokenId",
          "type": "uint256"
        }
      ],
      "name": "safeTransferFrom",
      "outputs": [],
      "stateMutability": "nonpayable",
      "type": "function"
    },
    {
      "inputs": [
        {
          "internalType": "address",
          "name": "from",
          "type": "address"
        },
        {
          "internalType": "address",
          "name": "to",
          "type": "address"
        },
        {
          "internalType": "uint256",
          "name": "tokenId",
          "type": "uint256"
        },
        {
          "internalType": "bytes",
          "name": "data",
          "type": "bytes"
        }
      ],
      "name": "safeTransferFrom",
      "outputs": [],
      "stateMutability": "nonpayable",
      "type": "function"
    },
    {
      "inputs": [
        {
          "internalType": "address",
          "name": "operator",
          "type": "address"
        },
        {
          "internalType": "bool",
          "name": "approved",
          "type": "bool"
        }
      ],
      "name": "setApprovalForAll",
      "outputs": [],
      "stateMutability": "nonpayable",
      "type": "function"
    },
    {
      "inputs": [
        {
          "internalType": "uint64",
          "name": "requestId",
          "type": "uint64"
        },
        {
          "internalType": "contract ICircuitValidator",
          "name": "validator",
          "type": "address"
        },
        {
          "components": [
            {
              "internalType": "uint256",
              "name": "schema",
              "type": "uint256"
            },
            {
              "internalType": "uint256",
              "name": "slotIndex",
              "type": "uint256"
            },
            {
              "internalType": "uint256",
              "name": "operator",
              "type": "uint256"
            },
            {
              "internalType": "uint256[]",
              "name": "value",
              "type": "uint256[]"
            },
            {
              "internalType": "string",
              "name": "circuitId",
              "type": "string"
            }
          ],
          "internalType": "struct ICircuitValidator.CircuitQuery",
          "name": "query",
          "type": "tuple"
        }
      ],
      "name": "setZKPRequest",
      "outputs": [
        {
          "internalType": "bool",
          "name": "",
          "type": "bool"
        }
      ],
      "stateMutability": "nonpayable",
      "type": "function"
    },
    {
      "inputs": [
        {
          "internalType": "uint64",
          "name": "requestId",
          "type": "uint64"
        },
        {
          "internalType": "uint256[]",
          "name": "inputs",
          "type": "uint256[]"
        },
        {
          "internalType": "uint256[2]",
          "name": "a",
          "type": "uint256[2]"
        },
        {
          "internalType": "uint256[2][2]",
          "name": "b",
          "type": "uint256[2][2]"
        },
        {
          "internalType": "uint256[2]",
          "name": "c",
          "type": "uint256[2]"
        }
      ],
      "name": "submitZKPResponse",
      "outputs": [
        {
          "internalType": "bool",
          "name": "",
          "type": "bool"
        }
      ],
      "stateMutability": "nonpayable",
      "type": "function"
    },
    {
      "inputs": [
        {
          "internalType": "uint256",
          "name": "",
          "type": "uint256"
        }
      ],
      "name": "supportedRequests",
      "outputs": [
        {
          "internalType": "uint64",
          "name": "",
          "type": "uint64"
        }
      ],
      "stateMutability": "view",
      "type": "function"
    },
    {
      "inputs": [
        {
          "internalType": "bytes4",
          "name": "interfaceId",
          "type": "bytes4"
        }
      ],
      "name": "supportsInterface",
      "outputs": [
        {
          "internalType": "bool",
          "name": "",
          "type": "bool"
        }
      ],
      "stateMutability": "view",
      "type": "function"
    },
    {
      "inputs": [],
      "name": "symbol",
      "outputs": [
        {
          "internalType": "string",
          "name": "",
          "type": "string"
        }
      ],
      "stateMutability": "view",
      "type": "function"
    },
    {
      "inputs": [
        {
          "internalType": "uint256",
          "name": "tokenId",
          "type": "uint256"
        }
      ],
      "name": "tokenURI",
      "outputs": [
        {
          "internalType": "string",
          "name": "",
          "type": "string"
        }
      ],
      "stateMutability": "view",
      "type": "function"
    },
    {
      "inputs": [
        {
          "internalType": "address",
          "name": "from",
          "type": "address"
        },
        {
          "internalType": "address",
          "name": "to",
          "type": "address"
        },
        {
          "internalType": "uint256",
          "name": "tokenId",
          "type": "uint256"
        }
      ],
      "name": "transferFrom",
      "outputs": [],
      "stateMutability": "nonpayable",
      "type": "function"
    },
    {
      "inputs": [
        {
          "internalType": "address",
          "name": "newOwner",
          "type": "address"
        }
      ],
      "name": "transferOwnership",
      "outputs": [],
      "stateMutability": "nonpayable",
      "type": "function"
    }
  ],
  "bytecode": "0x60806040523480156200001157600080fd5b50604051620040d9380380620040d9833981016040819052620000349162000251565b8151829082906200004d906000906020850190620000de565b50805162000063906001906020840190620000de565b505050620000806200007a6200008860201b60201c565b6200008c565b5050620002f8565b3390565b600680546001600160a01b038381166001600160a01b0319831681179093556040519116919082907f8be0079c531659141344cd1fd0a4f28419497f9722a3daafe3b4186f6b6457e090600090a35050565b828054620000ec90620002bb565b90600052602060002090601f0160209004810192826200011057600085556200015b565b82601f106200012b57805160ff19168380011785556200015b565b828001600101855582156200015b579182015b828111156200015b5782518255916020019190600101906200013e565b50620001699291506200016d565b5090565b5b808211156200016957600081556001016200016e565b634e487b7160e01b600052604160045260246000fd5b600082601f830112620001ac57600080fd5b81516001600160401b0380821115620001c957620001c962000184565b604051601f8301601f19908116603f01168101908282118183101715620001f457620001f462000184565b816040528381526020925086838588010111156200021157600080fd5b600091505b8382101562000235578582018301518183018401529082019062000216565b83821115620002475760008385830101525b9695505050505050565b600080604083850312156200026557600080fd5b82516001600160401b03808211156200027d57600080fd5b6200028b868387016200019a565b93506020850151915080821115620002a257600080fd5b50620002b1858286016200019a565b9150509250929050565b600181811c90821680620002d057607f821691505b60208210811415620002f257634e487b7160e01b600052602260045260246000fd5b50919050565b613dd180620003086000396000f3fe60806040523480156200001157600080fd5b5060043610620001cc5760003560e01c806395d89b41116200010d578063c76d084511620000a3578063e985e9c5116200007a578063e985e9c51462000482578063f143532614620004c1578063f2fde38b14620004d8578063fee207e614620004ef57600080fd5b8063c76d08451462000422578063c87b56dd1462000448578063cb0e0d7d146200045f57600080fd5b8063a872311411620000e4578063a87231141462000397578063b45c0fdf14620003c3578063b68967e214620003f4578063b88d4fde146200040b57600080fd5b806395d89b41146200034d57806396bf47411462000357578063a22cb465146200038057600080fd5b806337ba9523116200018357806363ec508f116200015a57806363ec508f14620002e957806370a08231146200030b578063715018a614620003315780638da5cb5b146200033b57600080fd5b806337ba952314620002a257806342842e0e14620002bb5780636352211e14620002d257600080fd5b806301ffc9a714620001d157806306fdde0314620001fd578063081812fc1462000216578063095ea7b3146200024657806323b872dd146200025f5780632a2d0c471462000276575b600080fd5b620001e8620001e236600462001dba565b62000506565b60405190151581526020015b60405180910390f35b620002076200055a565b604051620001f4919062001e37565b6200022d6200022736600462001e4c565b620005f4565b6040516001600160a01b039091168152602001620001f4565b6200025d6200025736600462001e7c565b6200061d565b005b6200025d6200027036600462001eab565b62000742565b6200022d6200028736600462001e4c565b600c602052600090815260409020546001600160a01b031681565b620002ac6200077a565b604051620001f4919062001ef1565b6200025d620002cc36600462001eab565b62000805565b6200022d620002e336600462001e4c565b62000822565b620002f2600181565b6040516001600160401b039091168152602001620001f4565b620003226200031c36600462001f40565b62000884565b604051908152602001620001f4565b6200025d6200090c565b6006546001600160a01b03166200022d565b6200020762000924565b6200036e6200036836600462001f7d565b62000935565b604051620001f4949392919062001f9b565b6200025d6200039136600462001fdb565b620009f0565b6200022d620003a836600462001f7d565b6009602052600090815260409020546001600160a01b031681565b620001e8620003d436600462002019565b600760209081526000928352604080842090915290825290205460ff1681565b620001e862000405366004620021ca565b62000a01565b6200025d6200041c36600462002303565b62000c6c565b620004396200043336600462001f7d565b62000cab565b604051620001f49190620023c8565b620002076200045936600462001e4c565b62000e13565b620003226200047036600462001f40565b600d6020526000908152604090205481565b620001e8620004933660046200242c565b6001600160a01b03918216600090815260056020908152604080832093909416825291909152205460ff1690565b620002f2620004d236600462001e4c565b62000e90565b6200025d620004e936600462001f40565b62000ece565b620001e8620005003660046200245f565b62000f4d565b60006001600160e01b031982166380ac58cd60e01b14806200053857506001600160e01b03198216635b5e139f60e01b145b806200055457506301ffc9a760e01b6001600160e01b03198316145b92915050565b6060600080546200056b9062002559565b80601f0160208091040260200160405190810160405280929190818152602001828054620005999062002559565b8015620005ea5780601f10620005be57610100808354040283529160200191620005ea565b820191906000526020600020905b815481529060010190602001808311620005cc57829003601f168201915b5050505050905090565b60006200060182620010df565b506000908152600460205260409020546001600160a01b031690565b60006200062a8262000822565b9050806001600160a01b0316836001600160a01b031614156200069e5760405162461bcd60e51b815260206004820152602160248201527f4552433732313a20617070726f76616c20746f2063757272656e74206f776e656044820152603960f91b60648201526084015b60405180910390fd5b336001600160a01b0382161480620006bd5750620006bd813362000493565b620007315760405162461bcd60e51b815260206004820152603e60248201527f4552433732313a20617070726f76652063616c6c6572206973206e6f7420746f60448201527f6b656e206f776e6572206e6f7220617070726f76656420666f7220616c6c0000606482015260840162000695565b6200073d838362001140565b505050565b6200074e3382620011b0565b6200076d5760405162461bcd60e51b8152600401620006959062002596565b6200073d83838362001235565b6060600a805480602002602001604051908101604052809291908181526020018280548015620005ea57602002820191906000526020600020906000905b82829054906101000a90046001600160401b03166001600160401b031681526020019060080190602082600701049283019260010382029150808411620007b85790505050505050905090565b6200073d8383836040518060200160405280600081525062000c6c565b6000818152600260205260408120546001600160a01b031680620005545760405162461bcd60e51b8152602060048201526018602482015277115490cdcc8c4e881a5b9d985b1a59081d1bdad95b88125160421b604482015260640162000695565b60006001600160a01b038216620008f05760405162461bcd60e51b815260206004820152602960248201527f4552433732313a2061646472657373207a65726f206973206e6f7420612076616044820152683634b21037bbb732b960b91b606482015260840162000695565b506001600160a01b031660009081526003602052604090205490565b62000916620013ea565b62000922600062001446565b565b6060600180546200056b9062002559565b600860205260009081526040902080546001820154600283015460048401805493949293919291620009679062002559565b80601f0160208091040260200160405190810160405280929190818152602001828054620009959062002559565b8015620009e65780601f10620009ba57610100808354040283529160200191620009e6565b820191906000526020600020905b815481529060010190602001808311620009c857829003601f168201915b5050505050905084565b620009fd33838362001498565b5050565b6001600160401b0385166000908152600960205260408120546001600160a01b031662000a825760405162461bcd60e51b815260206004820152602860248201527f76616c696461746f72206973206e6f742073657420666f7220746869732072656044820152671c5d595cdd081a5960c21b606482015260840162000695565b6001600160401b03861660009081526008602052604090205462000af55760405162461bcd60e51b8152602060048201526024808201527f7175657279206973206e6f742073657420666f722074686973207265717565736044820152631d081a5960e21b606482015260840162000695565b6001600160401b03861660009081526009602052604090205462000b2690879087906001600160a01b031662001569565b6001600160401b03861660009081526009602090815260408083205460089092529182902091516319f8754160e21b81526001600160a01b03909116916367e1d5049162000b8091899189918991899190600401620026b1565b602060405180830381865afa15801562000b9e573d6000803e3d6000fd5b505050506040513d601f19601f8201168201806040525081019062000bc49190620027ac565b62000c125760405162461bcd60e51b815260206004820152601b60248201527f70726f6f6620726573706f6e7365206973206e6f742076616c69640000000000604482015260640162000695565b3360009081526007602090815260408083206001600160401b038a1684528252808320805460ff19166001179055600990915290205462000c6090879087906001600160a01b031662001667565b50600195945050505050565b62000c783383620011b0565b62000c975760405162461bcd60e51b8152600401620006959062002596565b62000ca5848484846200182b565b50505050565b62000cde6040518060a0016040528060008152602001600081526020016000815260200160608152602001606081525090565b6001600160401b038216600090815260086020908152604091829020825160a08101845281548152600182015481840152600282015481850152600382018054855181860281018601909652808652919492936060860193929083018282801562000d6957602002820191906000526020600020905b81548152602001906001019080831162000d54575b5050505050815260200160048201805462000d849062002559565b80601f016020809104026020016040519081016040528092919081815260200182805462000db29062002559565b801562000e035780601f1062000dd75761010080835404028352916020019162000e03565b820191906000526020600020905b81548152906001019060200180831162000de557829003601f168201915b5050505050815250509050919050565b606062000e2082620010df565b600062000e3860408051602081019091526000815290565b9050600081511162000e5a576040518060200160405280600081525062000e89565b8062000e668462001865565b60405160200162000e79929190620027cc565b6040516020818303038152906040525b9392505050565b600a818154811062000ea157600080fd5b9060005260206000209060049182820401919006600802915054906101000a90046001600160401b031681565b62000ed8620013ea565b6001600160a01b03811662000f3f5760405162461bcd60e51b815260206004820152602660248201527f4f776e61626c653a206e6577206f776e657220697320746865207a65726f206160448201526564647265737360d01b606482015260840162000695565b62000f4a8162001446565b50565b600062000f59620013ea565b6001600160401b0384166000908152600960205260409020546001600160a01b031662000fde57600a80546001810182556000919091527fc65a7bb8d6351c1cf70c95a316cc6a92839c986682d98bc35f958f4883f9d2a86004820401805460039092166008026101000a6001600160401b0381810219909316928716029190911790555b60608201516001600160401b0385166000908152600860209081526040909120825162001015936003909201929091019062001cb2565b506040808301516001600160401b0386166000908152600860209081529290206002810191909155608084015180516200105a93600490930192919091019062001d02565b506020808301516001600160401b0386166000908152600883526040902060018101919091558351815560808401518051620010a193600490930192919091019062001d02565b50506001600160401b038316600090815260096020526040902080546001600160a01b0384166001600160a01b031990911617905560019392505050565b6000818152600260205260409020546001600160a01b031662000f4a5760405162461bcd60e51b8152602060048201526018602482015277115490cdcc8c4e881a5b9d985b1a59081d1bdad95b88125160421b604482015260640162000695565b600081815260046020526040902080546001600160a01b0319166001600160a01b0384169081179091558190620011778262000822565b6001600160a01b03167f8c5be1e5ebec7d5bd14f71427d1e84f3dd0314c0f7b2291e5b200ac8c7c3b92560405160405180910390a45050565b600080620011be8362000822565b9050806001600160a01b0316846001600160a01b031614806200120657506001600160a01b0380821660009081526005602090815260408083209388168352929052205460ff165b806200122d5750836001600160a01b03166200122284620005f4565b6001600160a01b0316145b949350505050565b826001600160a01b03166200124a8262000822565b6001600160a01b031614620012b05760405162461bcd60e51b815260206004820152602560248201527f4552433732313a207472616e736665722066726f6d20696e636f72726563742060448201526437bbb732b960d91b606482015260840162000695565b6001600160a01b038216620013145760405162461bcd60e51b8152602060048201526024808201527f4552433732313a207472616e7366657220746f20746865207a65726f206164646044820152637265737360e01b606482015260840162000695565b620013218383836200197a565b6200132e60008262001140565b6001600160a01b03831660009081526003602052604081208054600192906200135990849062002815565b90915550506001600160a01b0382166000908152600360205260408120805460019290620013899084906200282f565b909155505060008181526002602052604080822080546001600160a01b0319166001600160a01b0386811691821790925591518493918716917fddf252ad1be2c89b69c2b068fc378daa952ba7f163c4a11628f55a4df523b3ef91a4505050565b6006546001600160a01b03163314620009225760405162461bcd60e51b815260206004820181905260248201527f4f776e61626c653a2063616c6c6572206973206e6f7420746865206f776e6572604482015260640162000695565b600680546001600160a01b038381166001600160a01b0319831681179093556040519116919082907f8be0079c531659141344cd1fd0a4f28419497f9722a3daafe3b4186f6b6457e090600090a35050565b816001600160a01b0316836001600160a01b03161415620014fc5760405162461bcd60e51b815260206004820152601960248201527f4552433732313a20617070726f766520746f2063616c6c657200000000000000604482015260640162000695565b6001600160a01b03838116600081815260056020908152604080832094871680845294825291829020805460ff191686151590811790915591519182527f17307eab39ab6107e8899845ad3d59bd9653f200f220920489ca2b5937696c31910160405180910390a3505050565b6000620015f683836001600160a01b0316639f442afa6040518163ffffffff1660e01b8152600401602060405180830381865afa158015620015af573d6000803e3d6000fd5b505050506040513d601f19601f82011682018060405250810190620015d591906200284a565b81518110620015e857620015e862002864565b602002602001015162001a1c565b9050336001600160a01b0382161462000ca55760405162461bcd60e51b815260206004820152602c60248201527f6164647265737320696e207468652070726f6f66206973206e6f74206120736560448201526b6e646572206164647265737360a01b606482015260840162000695565b6001600160401b03831660011480156200168e5750336000908152600d6020526040902054155b620016ee5760405162461bcd60e51b815260206004820152602960248201527f70726f6f662063616e206e6f74206265207375626d6974746564206d6f7265206044820152687468616e206f6e636560b81b606482015260840162000695565b600082826001600160a01b0316639f442afa6040518163ffffffff1660e01b8152600401602060405180830381865afa15801562001730573d6000803e3d6000fd5b505050506040513d601f19601f820116820180604052508101906200175691906200284a565b8151811062001769576200176962002864565b6020908102919091018101516000818152600c9092526040909120549091506001600160a01b031662000ca557620017a5600b80546001019055565b6000620017b1600b5490565b33604051620017c09062001d7e565b9182526001600160a01b03166020820152604001604051809103906000f080158015620017f1573d6000803e3d6000fd5b5050336000818152600d60209081526040808320869055948252600c90529290922080546001600160a01b03191690921790915550505050565b6200183884848462001235565b620018468484848462001b7d565b62000ca55760405162461bcd60e51b815260040162000695906200287a565b6060816200188a5750506040805180820190915260018152600360fc1b602082015290565b8160005b8115620018ba5780620018a181620028cc565b9150620018b29050600a8362002900565b91506200188e565b6000816001600160401b03811115620018d757620018d762002053565b6040519080825280601f01601f19166020018201604052801562001902576020820181803683370190505b5090505b84156200122d576200191a60018362002815565b915062001929600a8662002917565b620019369060306200282f565b60f81b8183815181106200194e576200194e62002864565b60200101906001600160f81b031916908160001a90535062001972600a8662002900565b945062001906565b6001600160a01b0382166000908152600760209081526040808320600180855292529091205460ff161515146200073d576040805162461bcd60e51b81526020600482015260248101919091527f6f6e6c79206964656e7469746965732077686f2070726f76696465642070726f60448201527f6f662061726520616c6c6f77656420746f207265636569766520746f6b656e73606482015260840162000695565b60006200055462001b7662001b708460008190506008817eff00ff00ff00ff00ff00ff00ff00ff00ff00ff00ff00ff00ff00ff00ff00ff16901b6008827fff00ff00ff00ff00ff00ff00ff00ff00ff00ff00ff00ff00ff00ff00ff00ff0016901c1790506010817dffff0000ffff0000ffff0000ffff0000ffff0000ffff0000ffff0000ffff16901b6010827fffff0000ffff0000ffff0000ffff0000ffff0000ffff0000ffff0000ffff000016901c1790506020817bffffffff00000000ffffffff00000000ffffffff00000000ffffffff16901b6020827fffffffff00000000ffffffff00000000ffffffff00000000ffffffff0000000016901c17905060408177ffffffffffffffff0000000000000000ffffffffffffffff16901b60408277ffffffffffffffff0000000000000000ffffffffffffffff1916901c179050608081901b608082901c179050919050565b62001c88565b6014015190565b60006001600160a01b0384163b1562001c7d57604051630a85bd0160e11b81526001600160a01b0385169063150b7a029062001bc49033908990889088906004016200292e565b6020604051808303816000875af192505050801562001c02575060408051601f3d908101601f1916820190925262001bff9181019062002963565b60015b62001c62573d80801562001c33576040519150601f19603f3d011682016040523d82523d6000602084013e62001c38565b606091505b50805162001c5a5760405162461bcd60e51b815260040162000695906200287a565b805181602001fd5b6001600160e01b031916630a85bd0160e11b1490506200122d565b506001949350505050565b60408051602080825281830190925260609160208201818036833750505060208101929092525090565b82805482825590600052602060002090810192821562001cf0579160200282015b8281111562001cf057825182559160200191906001019062001cd3565b5062001cfe92915062001d8c565b5090565b82805462001d109062002559565b90600052602060002090601f01602090048101928262001d34576000855562001cf0565b82601f1062001d4f57805160ff191683800117855562001cf0565b8280016001018555821562001cf0579182018281111562001cf057825182559160200191906001019062001cd3565b611418806200298483390190565b5b8082111562001cfe576000815560010162001d8d565b6001600160e01b03198116811462000f4a57600080fd5b60006020828403121562001dcd57600080fd5b813562000e898162001da3565b60005b8381101562001df757818101518382015260200162001ddd565b8381111562000ca55750506000910152565b6000815180845262001e2381602086016020860162001dda565b601f01601f19169290920160200192915050565b60208152600062000e89602083018462001e09565b60006020828403121562001e5f57600080fd5b5035919050565b6001600160a01b038116811462000f4a57600080fd5b6000806040838503121562001e9057600080fd5b823562001e9d8162001e66565b946020939093013593505050565b60008060006060848603121562001ec157600080fd5b833562001ece8162001e66565b9250602084013562001ee08162001e66565b929592945050506040919091013590565b6020808252825182820181905260009190848201906040850190845b8181101562001f345783516001600160401b03168352928401929184019160010162001f0d565b50909695505050505050565b60006020828403121562001f5357600080fd5b813562000e898162001e66565b80356001600160401b038116811462001f7857600080fd5b919050565b60006020828403121562001f9057600080fd5b62000e898262001f60565b84815283602082015282604082015260806060820152600062001fc2608083018462001e09565b9695505050505050565b801515811462000f4a57600080fd5b6000806040838503121562001fef57600080fd5b823562001ffc8162001e66565b915060208301356200200e8162001fcc565b809150509250929050565b600080604083850312156200202d57600080fd5b82356200203a8162001e66565b91506200204a6020840162001f60565b90509250929050565b634e487b7160e01b600052604160045260246000fd5b60405160a081016001600160401b03811182821017156200208e576200208e62002053565b60405290565b604080519081016001600160401b03811182821017156200208e576200208e62002053565b604051601f8201601f191681016001600160401b0381118282101715620020e457620020e462002053565b604052919050565b600082601f830112620020fe57600080fd5b813560206001600160401b038211156200211c576200211c62002053565b8160051b6200212d828201620020b9565b92835284810182019282810190878511156200214857600080fd5b83870192505b8483101562002169578235825291830191908301906200214e565b979650505050505050565b600082601f8301126200218657600080fd5b6200219062002094565b806040840185811115620021a357600080fd5b845b81811015620021bf578035845260209384019301620021a5565b509095945050505050565b60008060008060006101408688031215620021e457600080fd5b620021ef8662001f60565b94506020808701356001600160401b038111156200220c57600080fd5b6200221a89828a01620020ec565b95505060406200222d89828a0162002174565b945088609f8901126200223f57600080fd5b6200224962002094565b806101008a018b8111156200225d57600080fd5b60808b015b818110156200228557620022778d8262002174565b845292850192840162002262565b50819650620022958c8262002174565b955050505050509295509295909350565b60006001600160401b03831115620022c257620022c262002053565b620022d7601f8401601f1916602001620020b9565b9050828152838383011115620022ec57600080fd5b828260208301376000602084830101529392505050565b600080600080608085870312156200231a57600080fd5b8435620023278162001e66565b93506020850135620023398162001e66565b92506040850135915060608501356001600160401b038111156200235c57600080fd5b8501601f810187136200236e57600080fd5b6200237f87823560208401620022a6565b91505092959194509250565b600081518084526020808501945080840160005b83811015620023bd578151875295820195908201906001016200239f565b509495945050505050565b602081528151602082015260208201516040820152604082015160608201526000606083015160a060808401526200240460c08401826200238b565b90506080840151601f198483030160a085015262002423828262001e09565b95945050505050565b600080604083850312156200244057600080fd5b82356200244d8162001e66565b915060208301356200200e8162001e66565b6000806000606084860312156200247557600080fd5b620024808462001f60565b92506020840135620024928162001e66565b915060408401356001600160401b0380821115620024af57600080fd5b9085019060a08288031215620024c457600080fd5b620024ce62002069565b823581526020830135602082015260408301356040820152606083013582811115620024f957600080fd5b6200250789828601620020ec565b6060830152506080830135828111156200252057600080fd5b80840193505087601f8401126200253657600080fd5b6200254788843560208601620022a6565b60808201528093505050509250925092565b600181811c908216806200256e57607f821691505b602082108114156200259057634e487b7160e01b600052602260045260246000fd5b50919050565b6020808252602e908201527f4552433732313a2063616c6c6572206973206e6f7420746f6b656e206f776e6560408201526d1c881b9bdc88185c1c1c9bdd995960921b606082015260800190565b8060005b600281101562000ca5578151845260209384019390910190600101620025e8565b8054600090600181811c90808316806200262457607f831692505b60208084108214156200264757634e487b7160e01b600052602260045260246000fd5b838852602088018280156200266557600181146200267757620026a4565b60ff19871682528282019750620026a4565b60008981526020902060005b878110156200269e5781548482015290860190840162002683565b83019850505b5050505050505092915050565b6000610140808352620026c7818401896200238b565b90506020620026d981850189620025e4565b606084018760005b60028110156200270c57620026f8838351620025e4565b6040929092019190830190600101620026e1565b5050506200271e60e0850187620025e4565b83820361012085015284548252600180860154828401526002860154604084015260a0606084018190526003870180549185018290526000908152838120929160c08601905b8083101562002783578454825293830193918301919085019062002764565b5085810360808701526200279b8160048b0162002609565b9d9c50505050505050505050505050565b600060208284031215620027bf57600080fd5b815162000e898162001fcc565b60008351620027e081846020880162001dda565b835190830190620027f681836020880162001dda565b01949350505050565b634e487b7160e01b600052601160045260246000fd5b6000828210156200282a576200282a620027ff565b500390565b60008219821115620028455762002845620027ff565b500190565b6000602082840312156200285d57600080fd5b5051919050565b634e487b7160e01b600052603260045260246000fd5b60208082526032908201527f4552433732313a207472616e7366657220746f206e6f6e20455243373231526560408201527131b2b4bb32b91034b6b83632b6b2b73a32b960711b606082015260800190565b6000600019821415620028e357620028e3620027ff565b5060010190565b634e487b7160e01b600052601260045260246000fd5b600082620029125762002912620028ea565b500490565b600082620029295762002929620028ea565b500690565b6001600160a01b038581168252841660208201526040810183905260806060820181905260009062001fc29083018462001e09565b6000602082840312156200297657600080fd5b815162000e898162001da356fe60806040523480156200001157600080fd5b506040516200141838038062001418833981016040819052620000349162000166565b604080518082018252600781526614185d1a595b9d60ca1b6020808301918252835180850190945260018452600560fc1b9084015281519192916200007c91600091620000c0565b50805162000092906001906020840190620000c0565b505050600691909155600780546001600160a01b0319166001600160a01b03909216919091179055620001e2565b828054620000ce90620001a5565b90600052602060002090601f016020900481019282620000f257600085556200013d565b82601f106200010d57805160ff19168380011785556200013d565b828001600101855582156200013d579182015b828111156200013d57825182559160200191906001019062000120565b506200014b9291506200014f565b5090565b5b808211156200014b576000815560010162000150565b600080604083850312156200017a57600080fd5b825160208401519092506001600160a01b03811681146200019a57600080fd5b809150509250929050565b600181811c90821680620001ba57607f821691505b60208210811415620001dc57634e487b7160e01b600052602260045260246000fd5b50919050565b61122680620001f26000396000f3fe608060405234801561001057600080fd5b50600436106101165760003560e01c80638da5cb5b116100a2578063b88d4fde11610071578063b88d4fde1461023c578063c87b56dd1461024f578063c9be655f14610262578063e985e9c514610275578063f2fde38b146102b157600080fd5b80638da5cb5b1461020557806395d89b4114610218578063a22cb46514610220578063af640d0f1461023357600080fd5b806323b872dd116100e957806323b872dd146101985780633e954b16146101ab57806342842e0e146101be5780636352211e146101d157806370a08231146101e457600080fd5b806301ffc9a71461011b57806306fdde0314610143578063081812fc14610158578063095ea7b314610183575b600080fd5b61012e610129366004610d39565b6102c4565b60405190151581526020015b60405180910390f35b61014b610316565b60405161013a9190610dae565b61016b610166366004610dc1565b6103a8565b6040516001600160a01b03909116815260200161013a565b610196610191366004610df6565b6103cf565b005b6101966101a6366004610e20565b6104ea565b6101966101b9366004610e5c565b61051b565b6101966101cc366004610e20565b610539565b61016b6101df366004610dc1565b610554565b6101f76101f2366004610e5c565b6105b4565b60405190815260200161013a565b60075461016b906001600160a01b031681565b61014b61063a565b61019661022e366004610e77565b610649565b6101f760065481565b61019661024a366004610ec9565b610658565b61014b61025d366004610dc1565b610690565b610196610270366004610dc1565b600855565b61012e610283366004610fa5565b6001600160a01b03918216600090815260056020908152604080832093909416825291909152205460ff1690565b6101966102bf366004610e5c565b610704565b60006001600160e01b031982166380ac58cd60e01b14806102f557506001600160e01b03198216635b5e139f60e01b145b8061031057506301ffc9a760e01b6001600160e01b03198316145b92915050565b60606000805461032590610fd8565b80601f016020809104026020016040519081016040528092919081815260200182805461035190610fd8565b801561039e5780601f106103735761010080835404028352916020019161039e565b820191906000526020600020905b81548152906001019060200180831161038157829003601f168201915b5050505050905090565b60006103b38261073d565b506000908152600460205260409020546001600160a01b031690565b60006103da82610554565b9050806001600160a01b0316836001600160a01b0316141561044d5760405162461bcd60e51b815260206004820152602160248201527f4552433732313a20617070726f76616c20746f2063757272656e74206f776e656044820152603960f91b60648201526084015b60405180910390fd5b336001600160a01b038216148061046957506104698133610283565b6104db5760405162461bcd60e51b815260206004820152603e60248201527f4552433732313a20617070726f76652063616c6c6572206973206e6f7420746f60448201527f6b656e206f776e6572206e6f7220617070726f76656420666f7220616c6c00006064820152608401610444565b6104e5838361079c565b505050565b6104f4338261080a565b6105105760405162461bcd60e51b815260040161044490611013565b6104e5838383610889565b600754600854610536916001600160a01b0316908390610889565b50565b6104e583838360405180602001604052806000815250610658565b6000818152600260205260408120546001600160a01b0316806103105760405162461bcd60e51b8152602060048201526018602482015277115490cdcc8c4e881a5b9d985b1a59081d1bdad95b88125160421b6044820152606401610444565b60006001600160a01b03821661061e5760405162461bcd60e51b815260206004820152602960248201527f4552433732313a2061646472657373207a65726f206973206e6f7420612076616044820152683634b21037bbb732b960b91b6064820152608401610444565b506001600160a01b031660009081526003602052604090205490565b60606001805461032590610fd8565b610654338383610a25565b5050565b610662338361080a565b61067e5760405162461bcd60e51b815260040161044490611013565b61068a84848484610af4565b50505050565b606061069b8261073d565b60006106b260408051602081019091526000815290565b905060008151116106d257604051806020016040528060008152506106fd565b806106dc84610b27565b6040516020016106ed929190611061565b6040516020818303038152906040525b9392505050565b6007546001600160a01b0316331461071b57600080fd5b600780546001600160a01b0319166001600160a01b0392909216919091179055565b6000818152600260205260409020546001600160a01b03166105365760405162461bcd60e51b8152602060048201526018602482015277115490cdcc8c4e881a5b9d985b1a59081d1bdad95b88125160421b6044820152606401610444565b600081815260046020526040902080546001600160a01b0319166001600160a01b03841690811790915581906107d182610554565b6001600160a01b03167f8c5be1e5ebec7d5bd14f71427d1e84f3dd0314c0f7b2291e5b200ac8c7c3b92560405160405180910390a45050565b60008061081683610554565b9050806001600160a01b0316846001600160a01b0316148061085d57506001600160a01b0380821660009081526005602090815260408083209388168352929052205460ff165b806108815750836001600160a01b0316610876846103a8565b6001600160a01b0316145b949350505050565b826001600160a01b031661089c82610554565b6001600160a01b0316146109005760405162461bcd60e51b815260206004820152602560248201527f4552433732313a207472616e736665722066726f6d20696e636f72726563742060448201526437bbb732b960d91b6064820152608401610444565b6001600160a01b0382166109625760405162461bcd60e51b8152602060048201526024808201527f4552433732313a207472616e7366657220746f20746865207a65726f206164646044820152637265737360e01b6064820152608401610444565b61096d60008261079c565b6001600160a01b03831660009081526003602052604081208054600192906109969084906110a6565b90915550506001600160a01b03821660009081526003602052604081208054600192906109c49084906110bd565b909155505060008181526002602052604080822080546001600160a01b0319166001600160a01b0386811691821790925591518493918716917fddf252ad1be2c89b69c2b068fc378daa952ba7f163c4a11628f55a4df523b3ef91a4505050565b816001600160a01b0316836001600160a01b03161415610a875760405162461bcd60e51b815260206004820152601960248201527f4552433732313a20617070726f766520746f2063616c6c6572000000000000006044820152606401610444565b6001600160a01b03838116600081815260056020908152604080832094871680845294825291829020805460ff191686151590811790915591519182527f17307eab39ab6107e8899845ad3d59bd9653f200f220920489ca2b5937696c31910160405180910390a3505050565b610aff848484610889565b610b0b84848484610c25565b61068a5760405162461bcd60e51b8152600401610444906110d5565b606081610b4b5750506040805180820190915260018152600360fc1b602082015290565b8160005b8115610b755780610b5f81611127565b9150610b6e9050600a83611158565b9150610b4f565b60008167ffffffffffffffff811115610b9057610b90610eb3565b6040519080825280601f01601f191660200182016040528015610bba576020820181803683370190505b5090505b841561088157610bcf6001836110a6565b9150610bdc600a8661116c565b610be79060306110bd565b60f81b818381518110610bfc57610bfc611180565b60200101906001600160f81b031916908160001a905350610c1e600a86611158565b9450610bbe565b60006001600160a01b0384163b15610d1857604051630a85bd0160e11b81526001600160a01b0385169063150b7a0290610c69903390899088908890600401611196565b6020604051808303816000875af1925050508015610ca4575060408051601f3d908101601f19168201909252610ca1918101906111d3565b60015b610cfe573d808015610cd2576040519150601f19603f3d011682016040523d82523d6000602084013e610cd7565b606091505b508051610cf65760405162461bcd60e51b8152600401610444906110d5565b805181602001fd5b6001600160e01b031916630a85bd0160e11b149050610881565b506001949350505050565b6001600160e01b03198116811461053657600080fd5b600060208284031215610d4b57600080fd5b81356106fd81610d23565b60005b83811015610d71578181015183820152602001610d59565b8381111561068a5750506000910152565b60008151808452610d9a816020860160208601610d56565b601f01601f19169290920160200192915050565b6020815260006106fd6020830184610d82565b600060208284031215610dd357600080fd5b5035919050565b80356001600160a01b0381168114610df157600080fd5b919050565b60008060408385031215610e0957600080fd5b610e1283610dda565b946020939093013593505050565b600080600060608486031215610e3557600080fd5b610e3e84610dda565b9250610e4c60208501610dda565b9150604084013590509250925092565b600060208284031215610e6e57600080fd5b6106fd82610dda565b60008060408385031215610e8a57600080fd5b610e9383610dda565b915060208301358015158114610ea857600080fd5b809150509250929050565b634e487b7160e01b600052604160045260246000fd5b60008060008060808587031215610edf57600080fd5b610ee885610dda565b9350610ef660208601610dda565b925060408501359150606085013567ffffffffffffffff80821115610f1a57600080fd5b818701915087601f830112610f2e57600080fd5b813581811115610f4057610f40610eb3565b604051601f8201601f19908116603f01168101908382118183101715610f6857610f68610eb3565b816040528281528a6020848701011115610f8157600080fd5b82602086016020830137600060208483010152809550505050505092959194509250565b60008060408385031215610fb857600080fd5b610fc183610dda565b9150610fcf60208401610dda565b90509250929050565b600181811c90821680610fec57607f821691505b6020821081141561100d57634e487b7160e01b600052602260045260246000fd5b50919050565b6020808252602e908201527f4552433732313a2063616c6c6572206973206e6f7420746f6b656e206f776e6560408201526d1c881b9bdc88185c1c1c9bdd995960921b606082015260800190565b60008351611073818460208801610d56565b835190830190611087818360208801610d56565b01949350505050565b634e487b7160e01b600052601160045260246000fd5b6000828210156110b8576110b8611090565b500390565b600082198211156110d0576110d0611090565b500190565b60208082526032908201527f4552433732313a207472616e7366657220746f206e6f6e20455243373231526560408201527131b2b4bb32b91034b6b83632b6b2b73a32b960711b606082015260800190565b600060001982141561113b5761113b611090565b5060010190565b634e487b7160e01b600052601260045260246000fd5b60008261116757611167611142565b500490565b60008261117b5761117b611142565b500690565b634e487b7160e01b600052603260045260246000fd5b6001600160a01b03858116825284166020820152604081018390526080606082018190526000906111c990830184610d82565b9695505050505050565b6000602082840312156111e557600080fd5b81516106fd81610d2356fea264697066735822122058132215e7736591ecf6c10eb2c85d72612ef7583b96d5b8b3d2474859080fa664736f6c634300080c0033a264697066735822122085ef19650c498eab900f39c5ea869da17d0e43cd5a97af9039e9a79e3a2b290c64736f6c634300080c0033",
  "linkReferences": {},
  "deployedLinkReferences": {}
}