{
  "_format": "hh-sol-artifact-1",
  "contractName": "PrescriptionNFT",
  "sourceName": "contracts/PrescriptionNFT.sol",
  "abi": [
    {
      "inputs": [],
      "stateMutability": "nonpayable",
      "type": "constructor"
    },
    {
      "anonymous": false,
      "inputs": [
        {
          "indexed": true,
          "internalType": "address",
          "name": "owner",
          "type": "address"
        },
        {
          "indexed": true,
          "internalType": "address",
          "name": "approved",
          "type": "address"
        },
        {
          "indexed": true,
          "internalType": "uint256",
          "name": "tokenId",
          "type": "uint256"
        }
      ],
      "name": "Approval",
      "type": "event"
    },
    {
      "anonymous": false,
      "inputs": [
        {
          "indexed": true,
          "internalType": "address",
          "name": "owner",
          "type": "address"
        },
        {
          "indexed": true,
          "internalType": "address",
          "name": "operator",
          "type": "address"
        },
        {
          "indexed": false,
          "internalType": "bool",
          "name": "approved",
          "type": "bool"
        }
      ],
      "name": "ApprovalForAll",
      "type": "event"
    },
    {
      "anonymous": false,
      "inputs": [
        {
          "indexed": true,
          "internalType": "address",
          "name": "from",
          "type": "address"
        },
        {
          "indexed": true,
          "internalType": "address",
          "name": "to",
          "type": "address"
        },
        {
          "indexed": true,
          "internalType": "uint256",
          "name": "tokenId",
          "type": "uint256"
        }
      ],
      "name": "Transfer",
      "type": "event"
    },
    {
      "inputs": [
        {
          "internalType": "address",
          "name": "to",
          "type": "address"
        },
        {
          "internalType": "uint256",
          "name": "tokenId",
          "type": "uint256"
        }
      ],
      "name": "approve",
      "outputs": [],
      "stateMutability": "nonpayable",
      "type": "function"
    },
    {
      "inputs": [
        {
          "internalType": "address",
          "name": "owner",
          "type": "address"
        }
      ],
      "name": "balanceOf",
      "outputs": [
        {
          "internalType": "uint256",
          "name": "",
          "type": "uint256"
        }
      ],
      "stateMutability": "view",
      "type": "function"
    },
    {
      "inputs": [
        {
          "internalType": "uint256",
          "name": "tokenId",
          "type": "uint256"
        }
      ],
      "name": "getApproved",
      "outputs": [
        {
          "internalType": "address",
          "name": "",
          "type": "address"
        }
      ],
      "stateMutability": "view",
      "type": "function"
    },
    {
      "inputs": [
        {
          "internalType": "address",
          "name": "owner",
          "type": "address"
        },
        {
          "internalType": "address",
          "name": "operator",
          "type": "address"
        }
      ],
      "name": "isApprovedForAll",
      "outputs": [
        {
          "internalType": "bool",
          "name": "",
          "type": "bool"
        }
      ],
      "stateMutability": "view",
      "type": "function"
    },
    {
      "inputs": [
        {
          "internalType": "address",
          "name": "recipient",
          "type": "address"
        },
        {
          "internalType": "string",
          "name": "tokenURI",
          "type": "string"
        }
      ],
      "name": "mintNFT",
      "outputs": [
        {
          "internalType": "uint256",
          "name": "",
          "type": "uint256"
        }
      ],
      "stateMutability": "nonpayable",
      "type": "function"
    },
    {
      "inputs": [],
      "name": "name",
      "outputs": [
        {
          "internalType": "string",
          "name": "",
          "type": "string"
        }
      ],
      "stateMutability": "view",
      "type": "function"
    },
    {
      "inputs": [],
      "name": "owner",
      "outputs": [
        {
          "internalType": "address",
          "name": "",
          "type": "address"
        }
      ],
      "stateMutability": "view",
      "type": "function"
    },
    {
      "inputs": [
        {
          "internalType": "uint256",
          "name": "tokenId",
          "type": "uint256"
        }
      ],
      "name": "ownerOf",
      "outputs": [
        {
          "internalType": "address",
          "name": "",
          "type": "address"
        }
      ],
      "stateMutability": "view",
      "type": "function"
    },
    {
      "inputs": [
        {
          "internalType": "address",
          "name": "from",
          "type": "address"
        },
        {
          "internalType": "address",
          "name": "to",
          "type": "address"
        },
        {
          "internalType": "uint256",
          "name": "tokenId",
          "type": "uint256"
        }
      ],
      "name": "safeTransferFrom",
      "outputs": [],
      "stateMutability": "nonpayable",
      "type": "function"
    },
    {
      "inputs": [
        {
          "internalType": "address",
          "name": "from",
          "type": "address"
        },
        {
          "internalType": "address",
          "name": "to",
          "type": "address"
        },
        {
          "internalType": "uint256",
          "name": "tokenId",
          "type": "uint256"
        },
        {
          "internalType": "bytes",
          "name": "data",
          "type": "bytes"
        }
      ],
      "name": "safeTransferFrom",
      "outputs": [],
      "stateMutability": "nonpayable",
      "type": "function"
    },
    {
      "inputs": [
        {
          "internalType": "address",
          "name": "operator",
          "type": "address"
        },
        {
          "internalType": "bool",
          "name": "approved",
          "type": "bool"
        }
      ],
      "name": "setApprovalForAll",
      "outputs": [],
      "stateMutability": "nonpayable",
      "type": "function"
    },
    {
      "inputs": [
        {
          "internalType": "bytes4",
          "name": "interfaceId",
          "type": "bytes4"
        }
      ],
      "name": "supportsInterface",
      "outputs": [
        {
          "internalType": "bool",
          "name": "",
          "type": "bool"
        }
      ],
      "stateMutability": "view",
      "type": "function"
    },
    {
      "inputs": [],
      "name": "symbol",
      "outputs": [
        {
          "internalType": "string",
          "name": "",
          "type": "string"
        }
      ],
      "stateMutability": "view",
      "type": "function"
    },
    {
      "inputs": [
        {
          "internalType": "uint256",
          "name": "tokenId",
          "type": "uint256"
        }
      ],
      "name": "tokenURI",
      "outputs": [
        {
          "internalType": "string",
          "name": "",
          "type": "string"
        }
      ],
      "stateMutability": "view",
      "type": "function"
    },
    {
      "inputs": [
        {
          "internalType": "address",
          "name": "from",
          "type": "address"
        },
        {
          "internalType": "address",
          "name": "to",
          "type": "address"
        },
        {
          "internalType": "uint256",
          "name": "tokenId",
          "type": "uint256"
        }
      ],
      "name": "transferFrom",
      "outputs": [],
      "stateMutability": "nonpayable",
      "type": "function"
    }
  ],
  "bytecode": "0x60806040523480156200001157600080fd5b50604080518082018252600f81526e141c995cd8dc9a5c1d1a5bdb939195608a1b60208083019182528351808501909452600384526214119560ea1b908401528151919291620000649160009162000095565b5080516200007a90600190602084019062000095565b5050600880546001600160a01b031916331790555062000178565b828054620000a3906200013b565b90600052602060002090601f016020900481019282620000c7576000855562000112565b82601f10620000e257805160ff191683800117855562000112565b8280016001018555821562000112579182015b8281111562000112578251825591602001919060010190620000f5565b506200012092915062000124565b5090565b5b8082111562000120576000815560010162000125565b600181811c908216806200015057607f821691505b602082108114156200017257634e487b7160e01b600052602260045260246000fd5b50919050565b6115fb80620001886000396000f3fe608060405234801561001057600080fd5b50600436106100f55760003560e01c806370a0823111610097578063b88d4fde11610066578063b88d4fde146101ff578063c87b56dd14610212578063e985e9c514610225578063eacabe141461026157600080fd5b806370a08231146101b05780638da5cb5b146101d157806395d89b41146101e4578063a22cb465146101ec57600080fd5b8063095ea7b3116100d3578063095ea7b31461016257806323b872dd1461017757806342842e0e1461018a5780636352211e1461019d57600080fd5b806301ffc9a7146100fa57806306fdde0314610122578063081812fc14610137575b600080fd5b61010d610108366004611096565b610274565b60405190151581526020015b60405180910390f35b61012a6102c6565b604051610119919061110b565b61014a61014536600461111e565b610358565b6040516001600160a01b039091168152602001610119565b610175610170366004611153565b61037f565b005b61017561018536600461117d565b61049a565b61017561019836600461117d565b6104cb565b61014a6101ab36600461111e565b6104e6565b6101c36101be3660046111b9565b610546565b604051908152602001610119565b60085461014a906001600160a01b031681565b61012a6105cc565b6101756101fa3660046111d4565b6105db565b61017561020d36600461129c565b6105ea565b61012a61022036600461111e565b610622565b61010d610233366004611318565b6001600160a01b03918216600090815260056020908152604080832093909416825291909152205460ff1690565b6101c361026f36600461134b565b610733565b60006001600160e01b031982166380ac58cd60e01b14806102a557506001600160e01b03198216635b5e139f60e01b145b806102c057506301ffc9a760e01b6001600160e01b03198316145b92915050565b6060600080546102d5906113ad565b80601f0160208091040260200160405190810160405280929190818152602001828054610301906113ad565b801561034e5780601f106103235761010080835404028352916020019161034e565b820191906000526020600020905b81548152906001019060200180831161033157829003601f168201915b5050505050905090565b6000610363826107af565b506000908152600460205260409020546001600160a01b031690565b600061038a826104e6565b9050806001600160a01b0316836001600160a01b031614156103fd5760405162461bcd60e51b815260206004820152602160248201527f4552433732313a20617070726f76616c20746f2063757272656e74206f776e656044820152603960f91b60648201526084015b60405180910390fd5b336001600160a01b038216148061041957506104198133610233565b61048b5760405162461bcd60e51b815260206004820152603e60248201527f4552433732313a20617070726f76652063616c6c6572206973206e6f7420746f60448201527f6b656e206f776e6572206e6f7220617070726f76656420666f7220616c6c000060648201526084016103f4565b6104958383610811565b505050565b6104a4338261087f565b6104c05760405162461bcd60e51b81526004016103f4906113e8565b6104958383836108fd565b610495838383604051806020016040528060008152506105ea565b6000818152600260205260408120546001600160a01b0316806102c05760405162461bcd60e51b8152602060048201526018602482015277115490cdcc8c4e881a5b9d985b1a59081d1bdad95b88125160421b60448201526064016103f4565b60006001600160a01b0382166105b05760405162461bcd60e51b815260206004820152602960248201527f4552433732313a2061646472657373207a65726f206973206e6f7420612076616044820152683634b21037bbb732b960b91b60648201526084016103f4565b506001600160a01b031660009081526003602052604090205490565b6060600180546102d5906113ad565b6105e6338383610a99565b5050565b6105f4338361087f565b6106105760405162461bcd60e51b81526004016103f4906113e8565b61061c84848484610b68565b50505050565b606061062d826107af565b60008281526006602052604081208054610646906113ad565b80601f0160208091040260200160405190810160405280929190818152602001828054610672906113ad565b80156106bf5780601f10610694576101008083540402835291602001916106bf565b820191906000526020600020905b8154815290600101906020018083116106a257829003601f168201915b5050505050905060006106dd60408051602081019091526000815290565b90508051600014156106f0575092915050565b81511561072257808260405160200161070a929190611436565b60405160208183030381529060405292505050919050565b61072b84610b9b565b949350505050565b6000826001600160a01b0381166107805760405162461bcd60e51b81526020600482015260116024820152704e6f742076616c6964206164647265737360781b60448201526064016103f4565b61078e600780546001019055565b600061079960075490565b90506107a58582610c0f565b61072b8185610d51565b6000818152600260205260409020546001600160a01b031661080e5760405162461bcd60e51b8152602060048201526018602482015277115490cdcc8c4e881a5b9d985b1a59081d1bdad95b88125160421b60448201526064016103f4565b50565b600081815260046020526040902080546001600160a01b0319166001600160a01b0384169081179091558190610846826104e6565b6001600160a01b03167f8c5be1e5ebec7d5bd14f71427d1e84f3dd0314c0f7b2291e5b200ac8c7c3b92560405160405180910390a45050565b60008061088b836104e6565b9050806001600160a01b0316846001600160a01b031614806108d257506001600160a01b0380821660009081526005602090815260408083209388168352929052205460ff165b8061072b5750836001600160a01b03166108eb84610358565b6001600160a01b031614949350505050565b826001600160a01b0316610910826104e6565b6001600160a01b0316146109745760405162461bcd60e51b815260206004820152602560248201527f4552433732313a207472616e736665722066726f6d20696e636f72726563742060448201526437bbb732b960d91b60648201526084016103f4565b6001600160a01b0382166109d65760405162461bcd60e51b8152602060048201526024808201527f4552433732313a207472616e7366657220746f20746865207a65726f206164646044820152637265737360e01b60648201526084016103f4565b6109e1600082610811565b6001600160a01b0383166000908152600360205260408120805460019290610a0a90849061147b565b90915550506001600160a01b0382166000908152600360205260408120805460019290610a38908490611492565b909155505060008181526002602052604080822080546001600160a01b0319166001600160a01b0386811691821790925591518493918716917fddf252ad1be2c89b69c2b068fc378daa952ba7f163c4a11628f55a4df523b3ef91a4505050565b816001600160a01b0316836001600160a01b03161415610afb5760405162461bcd60e51b815260206004820152601960248201527f4552433732313a20617070726f766520746f2063616c6c65720000000000000060448201526064016103f4565b6001600160a01b03838116600081815260056020908152604080832094871680845294825291829020805460ff191686151590811790915591519182527f17307eab39ab6107e8899845ad3d59bd9653f200f220920489ca2b5937696c31910160405180910390a3505050565b610b738484846108fd565b610b7f84848484610deb565b61061c5760405162461bcd60e51b81526004016103f4906114aa565b6060610ba6826107af565b6000610bbd60408051602081019091526000815290565b90506000815111610bdd5760405180602001604052806000815250610c08565b80610be784610ee9565b604051602001610bf8929190611436565b6040516020818303038152906040525b9392505050565b6001600160a01b038216610c655760405162461bcd60e51b815260206004820181905260248201527f4552433732313a206d696e7420746f20746865207a65726f206164647265737360448201526064016103f4565b6000818152600260205260409020546001600160a01b031615610cca5760405162461bcd60e51b815260206004820152601c60248201527f4552433732313a20746f6b656e20616c7265616479206d696e7465640000000060448201526064016103f4565b6001600160a01b0382166000908152600360205260408120805460019290610cf3908490611492565b909155505060008181526002602052604080822080546001600160a01b0319166001600160a01b03861690811790915590518392907fddf252ad1be2c89b69c2b068fc378daa952ba7f163c4a11628f55a4df523b3ef908290a45050565b6000828152600260205260409020546001600160a01b0316610dcc5760405162461bcd60e51b815260206004820152602e60248201527f45524337323155524953746f726167653a2055524920736574206f66206e6f6e60448201526d32bc34b9ba32b73a103a37b5b2b760911b60648201526084016103f4565b6000828152600660209081526040909120825161049592840190610fe7565b60006001600160a01b0384163b15610ede57604051630a85bd0160e11b81526001600160a01b0385169063150b7a0290610e2f9033908990889088906004016114fc565b6020604051808303816000875af1925050508015610e6a575060408051601f3d908101601f19168201909252610e6791810190611539565b60015b610ec4573d808015610e98576040519150601f19603f3d011682016040523d82523d6000602084013e610e9d565b606091505b508051610ebc5760405162461bcd60e51b81526004016103f4906114aa565b805181602001fd5b6001600160e01b031916630a85bd0160e11b14905061072b565b506001949350505050565b606081610f0d5750506040805180820190915260018152600360fc1b602082015290565b8160005b8115610f375780610f2181611556565b9150610f309050600a83611587565b9150610f11565b60008167ffffffffffffffff811115610f5257610f52611210565b6040519080825280601f01601f191660200182016040528015610f7c576020820181803683370190505b5090505b841561072b57610f9160018361147b565b9150610f9e600a8661159b565b610fa9906030611492565b60f81b818381518110610fbe57610fbe6115af565b60200101906001600160f81b031916908160001a905350610fe0600a86611587565b9450610f80565b828054610ff3906113ad565b90600052602060002090601f016020900481019282611015576000855561105b565b82601f1061102e57805160ff191683800117855561105b565b8280016001018555821561105b579182015b8281111561105b578251825591602001919060010190611040565b5061106792915061106b565b5090565b5b80821115611067576000815560010161106c565b6001600160e01b03198116811461080e57600080fd5b6000602082840312156110a857600080fd5b8135610c0881611080565b60005b838110156110ce5781810151838201526020016110b6565b8381111561061c5750506000910152565b600081518084526110f78160208601602086016110b3565b601f01601f19169290920160200192915050565b602081526000610c0860208301846110df565b60006020828403121561113057600080fd5b5035919050565b80356001600160a01b038116811461114e57600080fd5b919050565b6000806040838503121561116657600080fd5b61116f83611137565b946020939093013593505050565b60008060006060848603121561119257600080fd5b61119b84611137565b92506111a960208501611137565b9150604084013590509250925092565b6000602082840312156111cb57600080fd5b610c0882611137565b600080604083850312156111e757600080fd5b6111f083611137565b91506020830135801515811461120557600080fd5b809150509250929050565b634e487b7160e01b600052604160045260246000fd5b600067ffffffffffffffff8084111561124157611241611210565b604051601f8501601f19908116603f0116810190828211818310171561126957611269611210565b8160405280935085815286868601111561128257600080fd5b858560208301376000602087830101525050509392505050565b600080600080608085870312156112b257600080fd5b6112bb85611137565b93506112c960208601611137565b925060408501359150606085013567ffffffffffffffff8111156112ec57600080fd5b8501601f810187136112fd57600080fd5b61130c87823560208401611226565b91505092959194509250565b6000806040838503121561132b57600080fd5b61133483611137565b915061134260208401611137565b90509250929050565b6000806040838503121561135e57600080fd5b61136783611137565b9150602083013567ffffffffffffffff81111561138357600080fd5b8301601f8101851361139457600080fd5b6113a385823560208401611226565b9150509250929050565b600181811c908216806113c157607f821691505b602082108114156113e257634e487b7160e01b600052602260045260246000fd5b50919050565b6020808252602e908201527f4552433732313a2063616c6c6572206973206e6f7420746f6b656e206f776e6560408201526d1c881b9bdc88185c1c1c9bdd995960921b606082015260800190565b600083516114488184602088016110b3565b83519083019061145c8183602088016110b3565b01949350505050565b634e487b7160e01b600052601160045260246000fd5b60008282101561148d5761148d611465565b500390565b600082198211156114a5576114a5611465565b500190565b60208082526032908201527f4552433732313a207472616e7366657220746f206e6f6e20455243373231526560408201527131b2b4bb32b91034b6b83632b6b2b73a32b960711b606082015260800190565b6001600160a01b038581168252841660208201526040810183905260806060820181905260009061152f908301846110df565b9695505050505050565b60006020828403121561154b57600080fd5b8151610c0881611080565b600060001982141561156a5761156a611465565b5060010190565b634e487b7160e01b600052601260045260246000fd5b60008261159657611596611571565b500490565b6000826115aa576115aa611571565b500690565b634e487b7160e01b600052603260045260246000fdfea26469706673582212208593bf49c10997f2eb471e7d42df120acc357754ece800d3af039a51fb242a8a64736f6c634300080c0033",
  "linkReferences": {},
  "deployedLinkReferences": {}
}