{
  "_format": "hh-sol-artifact-1",
  "contractName": "Pharmacy",
  "sourceName": "contracts/Pharmacy.sol",
  "abi": [
    {
      "inputs": [
        {
          "internalType": "string",
          "name": "_name",
          "type": "string"
        },
        {
          "components": [
            {
              "internalType": "uint256",
              "name": "latitude",
              "type": "uint256"
            },
            {
              "internalType": "uint256",
              "name": "longitude",
              "type": "uint256"
            }
          ],
          "internalType": "struct Pharmacy.Location",
          "name": "_location",
          "type": "tuple"
        },
        {
          "internalType": "uint256",
          "name": "_id",
          "type": "uint256"
        }
      ],
      "stateMutability": "nonpayable",
      "type": "constructor"
    },
    {
      "anonymous": false,
      "inputs": [
        {
          "indexed": true,
          "internalType": "address",
          "name": "owner",
          "type": "address"
        },
        {
          "indexed": true,
          "internalType": "address",
          "name": "approved",
          "type": "address"
        },
        {
          "indexed": true,
          "internalType": "uint256",
          "name": "tokenId",
          "type": "uint256"
        }
      ],
      "name": "Approval",
      "type": "event"
    },
    {
      "anonymous": false,
      "inputs": [
        {
          "indexed": true,
          "internalType": "address",
          "name": "owner",
          "type": "address"
        },
        {
          "indexed": true,
          "internalType": "address",
          "name": "operator",
          "type": "address"
        },
        {
          "indexed": false,
          "internalType": "bool",
          "name": "approved",
          "type": "bool"
        }
      ],
      "name": "ApprovalForAll",
      "type": "event"
    },
    {
      "anonymous": false,
      "inputs": [
        {
          "indexed": true,
          "internalType": "address",
          "name": "from",
          "type": "address"
        },
        {
          "indexed": true,
          "internalType": "address",
          "name": "to",
          "type": "address"
        },
        {
          "indexed": true,
          "internalType": "uint256",
          "name": "tokenId",
          "type": "uint256"
        }
      ],
      "name": "Transfer",
      "type": "event"
    },
    {
      "inputs": [
        {
          "internalType": "uint256",
          "name": "drug_id",
          "type": "uint256"
        },
        {
          "internalType": "uint256",
          "name": "quantity",
          "type": "uint256"
        }
      ],
      "name": "addStock",
      "outputs": [],
      "stateMutability": "nonpayable",
      "type": "function"
    },
    {
      "inputs": [
        {
          "internalType": "address",
          "name": "to",
          "type": "address"
        },
        {
          "internalType": "uint256",
          "name": "tokenId",
          "type": "uint256"
        }
      ],
      "name": "approve",
      "outputs": [],
      "stateMutability": "nonpayable",
      "type": "function"
    },
    {
      "inputs": [
        {
          "internalType": "address",
          "name": "owner",
          "type": "address"
        }
      ],
      "name": "balanceOf",
      "outputs": [
        {
          "internalType": "uint256",
          "name": "",
          "type": "uint256"
        }
      ],
      "stateMutability": "view",
      "type": "function"
    },
    {
      "inputs": [
        {
          "internalType": "uint256",
          "name": "drugId",
          "type": "uint256"
        }
      ],
      "name": "checkStock",
      "outputs": [
        {
          "internalType": "bool",
          "name": "",
          "type": "bool"
        }
      ],
      "stateMutability": "view",
      "type": "function"
    },
    {
      "inputs": [
        {
          "internalType": "address",
          "name": "reservationContractAddress",
          "type": "address"
        },
        {
          "internalType": "address",
          "name": "brokerAddress",
          "type": "address"
        },
        {
          "internalType": "string",
          "name": "tokenURI",
          "type": "string"
        }
      ],
      "name": "createReservationToken",
      "outputs": [],
      "stateMutability": "nonpayable",
      "type": "function"
    },
    {
      "inputs": [
        {
          "internalType": "address",
          "name": "stockAllocContractAddress",
          "type": "address"
        },
        {
          "internalType": "address",
          "name": "brokerAddress",
          "type": "address"
        },
        {
          "internalType": "string",
          "name": "tokenURI",
          "type": "string"
        }
      ],
      "name": "createStockAllocToken",
      "outputs": [],
      "stateMutability": "nonpayable",
      "type": "function"
    },
    {
      "inputs": [],
      "name": "destroyStockAllocToken",
      "outputs": [],
      "stateMutability": "nonpayable",
      "type": "function"
    },
    {
      "inputs": [],
      "name": "destroyStockReqToken",
      "outputs": [],
      "stateMutability": "nonpayable",
      "type": "function"
    },
    {
      "inputs": [
        {
          "internalType": "uint256",
          "name": "tokenId",
          "type": "uint256"
        }
      ],
      "name": "getApproved",
      "outputs": [
        {
          "internalType": "address",
          "name": "",
          "type": "address"
        }
      ],
      "stateMutability": "view",
      "type": "function"
    },
    {
      "inputs": [
        {
          "internalType": "address",
          "name": "owner",
          "type": "address"
        },
        {
          "internalType": "address",
          "name": "operator",
          "type": "address"
        }
      ],
      "name": "isApprovedForAll",
      "outputs": [
        {
          "internalType": "bool",
          "name": "",
          "type": "bool"
        }
      ],
      "stateMutability": "view",
      "type": "function"
    },
    {
      "inputs": [],
      "name": "name",
      "outputs": [
        {
          "internalType": "string",
          "name": "",
          "type": "string"
        }
      ],
      "stateMutability": "view",
      "type": "function"
    },
    {
      "inputs": [],
      "name": "owner",
      "outputs": [
        {
          "internalType": "address",
          "name": "",
          "type": "address"
        }
      ],
      "stateMutability": "view",
      "type": "function"
    },
    {
      "inputs": [
        {
          "internalType": "uint256",
          "name": "tokenId",
          "type": "uint256"
        }
      ],
      "name": "ownerOf",
      "outputs": [
        {
          "internalType": "address",
          "name": "",
          "type": "address"
        }
      ],
      "stateMutability": "view",
      "type": "function"
    },
    {
      "inputs": [
        {
          "internalType": "uint256",
          "name": "drug_id",
          "type": "uint256"
        },
        {
          "internalType": "uint256",
          "name": "box_id",
          "type": "uint256"
        }
      ],
      "name": "removeStock",
      "outputs": [],
      "stateMutability": "nonpayable",
      "type": "function"
    },
    {
      "inputs": [
        {
          "internalType": "address",
          "name": "from",
          "type": "address"
        },
        {
          "internalType": "address",
          "name": "to",
          "type": "address"
        },
        {
          "internalType": "uint256",
          "name": "tokenId",
          "type": "uint256"
        }
      ],
      "name": "safeTransferFrom",
      "outputs": [],
      "stateMutability": "nonpayable",
      "type": "function"
    },
    {
      "inputs": [
        {
          "internalType": "address",
          "name": "from",
          "type": "address"
        },
        {
          "internalType": "address",
          "name": "to",
          "type": "address"
        },
        {
          "internalType": "uint256",
          "name": "tokenId",
          "type": "uint256"
        },
        {
          "internalType": "bytes",
          "name": "data",
          "type": "bytes"
        }
      ],
      "name": "safeTransferFrom",
      "outputs": [],
      "stateMutability": "nonpayable",
      "type": "function"
    },
    {
      "inputs": [
        {
          "internalType": "address",
          "name": "operator",
          "type": "address"
        },
        {
          "internalType": "bool",
          "name": "approved",
          "type": "bool"
        }
      ],
      "name": "setApprovalForAll",
      "outputs": [],
      "stateMutability": "nonpayable",
      "type": "function"
    },
    {
      "inputs": [
        {
          "internalType": "uint256",
          "name": "_id",
          "type": "uint256"
        }
      ],
      "name": "setStockReqId",
      "outputs": [],
      "stateMutability": "nonpayable",
      "type": "function"
    },
    {
      "inputs": [
        {
          "internalType": "bytes4",
          "name": "interfaceId",
          "type": "bytes4"
        }
      ],
      "name": "supportsInterface",
      "outputs": [
        {
          "internalType": "bool",
          "name": "",
          "type": "bool"
        }
      ],
      "stateMutability": "view",
      "type": "function"
    },
    {
      "inputs": [],
      "name": "symbol",
      "outputs": [
        {
          "internalType": "string",
          "name": "",
          "type": "string"
        }
      ],
      "stateMutability": "view",
      "type": "function"
    },
    {
      "inputs": [
        {
          "internalType": "uint256",
          "name": "tokenId",
          "type": "uint256"
        }
      ],
      "name": "tokenURI",
      "outputs": [
        {
          "internalType": "string",
          "name": "",
          "type": "string"
        }
      ],
      "stateMutability": "view",
      "type": "function"
    },
    {
      "inputs": [
        {
          "internalType": "address",
          "name": "from",
          "type": "address"
        },
        {
          "internalType": "address",
          "name": "to",
          "type": "address"
        },
        {
          "internalType": "uint256",
          "name": "tokenId",
          "type": "uint256"
        }
      ],
      "name": "transferFrom",
      "outputs": [],
      "stateMutability": "nonpayable",
      "type": "function"
    },
    {
      "inputs": [
        {
          "internalType": "address",
          "name": "brokerAddress",
          "type": "address"
        }
      ],
      "name": "transferReservationToken",
      "outputs": [],
      "stateMutability": "nonpayable",
      "type": "function"
    }
  ],
  "bytecode": "0x60806040523480156200001157600080fd5b50604051620019673803806200196783398101604081905262000034916200021c565b6040805180820182526008815267506861726d61637960c01b6020808301918252835180850190945260028452610a0960f31b9084015281519192916200007e91600091620000db565b50805162000094906001906020840190620000db565b5050825160085550602080830151600955600a8290558351620000be91600b9190860190620000db565b5050600780546001600160a01b0319163317905550620003359050565b828054620000e990620002f8565b90600052602060002090601f0160209004810192826200010d576000855562000158565b82601f106200012857805160ff191683800117855562000158565b8280016001018555821562000158579182015b82811115620001585782518255916020019190600101906200013b565b50620001669291506200016a565b5090565b5b808211156200016657600081556001016200016b565b634e487b7160e01b600052604160045260246000fd5b604051601f8201601f191681016001600160401b0381118282101715620001c257620001c262000181565b604052919050565b600060408284031215620001dd57600080fd5b604080519081016001600160401b038111828210171562000202576200020262000181565b604052825181526020928301519281019290925250919050565b6000806000608084860312156200023257600080fd5b83516001600160401b03808211156200024a57600080fd5b818601915086601f8301126200025f57600080fd5b81518181111562000274576200027462000181565b602091506200028c601f8201601f1916830162000197565b8181528883838601011115620002a157600080fd5b60005b82811015620002c1578481018401518282018501528301620002a4565b82811115620002d35760008484840101525b509550620002e6905087878301620001ca565b93505050606084015190509250925092565b600181811c908216806200030d57607f821691505b602082108114156200032f57634e487b7160e01b600052602260045260246000fd5b50919050565b61162280620003456000396000f3fe608060405234801561001057600080fd5b506004361061014d5760003560e01c80638da5cb5b116100c3578063ab29b5901161007c578063ab29b590146102c2578063b88d4fde146102d5578063c87b56dd146102e8578063d4ae6c20146102fb578063e985e9c51461030e578063fae4d8e41461034a57600080fd5b80638da5cb5b1461025757806395d89b411461026a57806397baba69146102725780639dd622e31461027a578063a22cb4651461028d578063a307fcf9146102a057600080fd5b80633e954b16116101155780633e954b16146101e257806342842e0e146101f55780636352211e1461020857806370a082311461021b5780637edd19a21461023c57806384bbed611461024f57600080fd5b806301ffc9a71461015257806306fdde031461017a578063081812fc1461018f578063095ea7b3146101ba57806323b872dd146101cf575b600080fd5b61016561016036600461104e565b61035d565b60405190151581526020015b60405180910390f35b6101826103af565b60405161017191906110c3565b6101a261019d3660046110d6565b610441565b6040516001600160a01b039091168152602001610171565b6101cd6101c836600461110b565b610468565b005b6101cd6101dd366004611135565b610583565b6101cd6101f0366004611171565b6105b4565b6101cd610203366004611135565b6105d2565b6101a26102163660046110d6565b6105ed565b61022e610229366004611171565b61064d565b604051908152602001610171565b6101cd61024a36600461118c565b6106d3565b6101cd61078e565b6007546101a2906001600160a01b031681565b6101826107ae565b6101cd6107bd565b6101cd61028836600461123a565b6107dd565b6101cd61029b3660046112ac565b610859565b6101656102ae3660046110d6565b6000908152600c6020526040902054151590565b6101cd6102d036600461123a565b610868565b6101cd6102e33660046112e8565b6108e8565b6101826102f63660046110d6565b610920565b6101cd61030936600461118c565b610994565b61016561031c366004611364565b6001600160a01b03918216600090815260056020908152604080832093909416825291909152205460ff1690565b6101cd6103583660046110d6565b600f55565b60006001600160e01b031982166380ac58cd60e01b148061038e57506001600160e01b03198216635b5e139f60e01b145b806103a957506301ffc9a760e01b6001600160e01b03198316145b92915050565b6060600080546103be90611397565b80601f01602080910402602001604051908101604052809291908181526020018280546103ea90611397565b80156104375780601f1061040c57610100808354040283529160200191610437565b820191906000526020600020905b81548152906001019060200180831161041a57829003601f168201915b5050505050905090565b600061044c826109ed565b506000908152600460205260409020546001600160a01b031690565b6000610473826105ed565b9050806001600160a01b0316836001600160a01b031614156104e65760405162461bcd60e51b815260206004820152602160248201527f4552433732313a20617070726f76616c20746f2063757272656e74206f776e656044820152603960f91b60648201526084015b60405180910390fd5b336001600160a01b03821614806105025750610502813361031c565b6105745760405162461bcd60e51b815260206004820152603e60248201527f4552433732313a20617070726f76652063616c6c6572206973206e6f7420746f60448201527f6b656e206f776e6572206e6f7220617070726f76656420666f7220616c6c000060648201526084016104dd565b61057e8383610a4c565b505050565b61058d3382610aba565b6105a95760405162461bcd60e51b81526004016104dd906113d2565b61057e838383610b39565b600754600e546105cf916001600160a01b0316908390610b39565b50565b61057e838383604051806020016040528060008152506108e8565b6000818152600260205260408120546001600160a01b0316806103a95760405162461bcd60e51b8152602060048201526018602482015277115490cdcc8c4e881a5b9d985b1a59081d1bdad95b88125160421b60448201526064016104dd565b60006001600160a01b0382166106b75760405162461bcd60e51b815260206004820152602960248201527f4552433732313a2061646472657373207a65726f206973206e6f7420612076616044820152683634b21037bbb732b960b91b60648201526084016104dd565b506001600160a01b031660009081526003602052604090205490565b6007546001600160a01b031633146107195760405162461bcd60e51b81526020600482015260096024820152682737ba1037bbb732b960b91b60448201526064016104dd565b60005b8181101561057e57610732600680546001019055565b600061073d60065490565b6000858152600c6020908152604082208054600181018255818452918320909101839055908690528054919250906107789082908190610fd3565b505050808061078690611436565b91505061071c565b600754600f546000916105cf916001600160a01b03909116908390610b39565b6060600180546103be90611397565b600754600d546000916105cf916001600160a01b03909116908390610b39565b604051633ab2af8560e21b815283906001600160a01b0382169063eacabe149061080d9086908690600401611451565b6020604051808303816000875af115801561082c573d6000803e3d6000fd5b505050506040513d601f19601f820116820180604052508101906108509190611475565b600e5550505050565b610864338383610cd5565b5050565b600754604051633ab2af8560e21b815284916001600160a01b038084169263eacabe149261089c9216908690600401611451565b6020604051808303816000875af11580156108bb573d6000803e3d6000fd5b505050506040513d601f19601f820116820180604052508101906108df9190611475565b600d5550505050565b6108f23383610aba565b61090e5760405162461bcd60e51b81526004016104dd906113d2565b61091a84848484610da4565b50505050565b606061092b826109ed565b600061094260408051602081019091526000815290565b90506000815111610962576040518060200160405280600081525061098d565b8061096c84610dd7565b60405160200161097d92919061148e565b6040516020818303038152906040525b9392505050565b6000828152600c60209081526040808320848452601090925290912054815482919081106109c4576109c46114bd565b60009182526020808320909101829055848252600c905260409020815461091a91908390610fd3565b6000818152600260205260409020546001600160a01b03166105cf5760405162461bcd60e51b8152602060048201526018602482015277115490cdcc8c4e881a5b9d985b1a59081d1bdad95b88125160421b60448201526064016104dd565b600081815260046020526040902080546001600160a01b0319166001600160a01b0384169081179091558190610a81826105ed565b6001600160a01b03167f8c5be1e5ebec7d5bd14f71427d1e84f3dd0314c0f7b2291e5b200ac8c7c3b92560405160405180910390a45050565b600080610ac6836105ed565b9050806001600160a01b0316846001600160a01b03161480610b0d57506001600160a01b0380821660009081526005602090815260408083209388168352929052205460ff165b80610b315750836001600160a01b0316610b2684610441565b6001600160a01b0316145b949350505050565b826001600160a01b0316610b4c826105ed565b6001600160a01b031614610bb05760405162461bcd60e51b815260206004820152602560248201527f4552433732313a207472616e736665722066726f6d20696e636f72726563742060448201526437bbb732b960d91b60648201526084016104dd565b6001600160a01b038216610c125760405162461bcd60e51b8152602060048201526024808201527f4552433732313a207472616e7366657220746f20746865207a65726f206164646044820152637265737360e01b60648201526084016104dd565b610c1d600082610a4c565b6001600160a01b0383166000908152600360205260408120805460019290610c469084906114d3565b90915550506001600160a01b0382166000908152600360205260408120805460019290610c749084906114ea565b909155505060008181526002602052604080822080546001600160a01b0319166001600160a01b0386811691821790925591518493918716917fddf252ad1be2c89b69c2b068fc378daa952ba7f163c4a11628f55a4df523b3ef91a4505050565b816001600160a01b0316836001600160a01b03161415610d375760405162461bcd60e51b815260206004820152601960248201527f4552433732313a20617070726f766520746f2063616c6c65720000000000000060448201526064016104dd565b6001600160a01b03838116600081815260056020908152604080832094871680845294825291829020805460ff191686151590811790915591519182527f17307eab39ab6107e8899845ad3d59bd9653f200f220920489ca2b5937696c31910160405180910390a3505050565b610daf848484610b39565b610dbb84848484610ed5565b61091a5760405162461bcd60e51b81526004016104dd90611502565b606081610dfb5750506040805180820190915260018152600360fc1b602082015290565b8160005b8115610e255780610e0f81611436565b9150610e1e9050600a8361156a565b9150610dff565b60008167ffffffffffffffff811115610e4057610e406111ae565b6040519080825280601f01601f191660200182016040528015610e6a576020820181803683370190505b5090505b8415610b3157610e7f6001836114d3565b9150610e8c600a8661157e565b610e979060306114ea565b60f81b818381518110610eac57610eac6114bd565b60200101906001600160f81b031916908160001a905350610ece600a8661156a565b9450610e6e565b60006001600160a01b0384163b15610fc857604051630a85bd0160e11b81526001600160a01b0385169063150b7a0290610f19903390899088908890600401611592565b6020604051808303816000875af1925050508015610f54575060408051601f3d908101601f19168201909252610f51918101906115cf565b60015b610fae573d808015610f82576040519150601f19603f3d011682016040523d82523d6000602084013e610f87565b606091505b508051610fa65760405162461bcd60e51b81526004016104dd90611502565b805181602001fd5b6001600160e01b031916630a85bd0160e11b149050610b31565b506001949350505050565b8280548282559060005260206000209081019282156110135760005260206000209182015b82811115611013578254825591600101919060010190610ff8565b5061101f929150611023565b5090565b5b8082111561101f5760008155600101611024565b6001600160e01b0319811681146105cf57600080fd5b60006020828403121561106057600080fd5b813561098d81611038565b60005b8381101561108657818101518382015260200161106e565b8381111561091a5750506000910152565b600081518084526110af81602086016020860161106b565b601f01601f19169290920160200192915050565b60208152600061098d6020830184611097565b6000602082840312156110e857600080fd5b5035919050565b80356001600160a01b038116811461110657600080fd5b919050565b6000806040838503121561111e57600080fd5b611127836110ef565b946020939093013593505050565b60008060006060848603121561114a57600080fd5b611153846110ef565b9250611161602085016110ef565b9150604084013590509250925092565b60006020828403121561118357600080fd5b61098d826110ef565b6000806040838503121561119f57600080fd5b50508035926020909101359150565b634e487b7160e01b600052604160045260246000fd5b600067ffffffffffffffff808411156111df576111df6111ae565b604051601f8501601f19908116603f01168101908282118183101715611207576112076111ae565b8160405280935085815286868601111561122057600080fd5b858560208301376000602087830101525050509392505050565b60008060006060848603121561124f57600080fd5b611258846110ef565b9250611266602085016110ef565b9150604084013567ffffffffffffffff81111561128257600080fd5b8401601f8101861361129357600080fd5b6112a2868235602084016111c4565b9150509250925092565b600080604083850312156112bf57600080fd5b6112c8836110ef565b9150602083013580151581146112dd57600080fd5b809150509250929050565b600080600080608085870312156112fe57600080fd5b611307856110ef565b9350611315602086016110ef565b925060408501359150606085013567ffffffffffffffff81111561133857600080fd5b8501601f8101871361134957600080fd5b611358878235602084016111c4565b91505092959194509250565b6000806040838503121561137757600080fd5b611380836110ef565b915061138e602084016110ef565b90509250929050565b600181811c908216806113ab57607f821691505b602082108114156113cc57634e487b7160e01b600052602260045260246000fd5b50919050565b6020808252602e908201527f4552433732313a2063616c6c6572206973206e6f7420746f6b656e206f776e6560408201526d1c881b9bdc88185c1c1c9bdd995960921b606082015260800190565b634e487b7160e01b600052601160045260246000fd5b600060001982141561144a5761144a611420565b5060010190565b6001600160a01b0383168152604060208201819052600090610b3190830184611097565b60006020828403121561148757600080fd5b5051919050565b600083516114a081846020880161106b565b8351908301906114b481836020880161106b565b01949350505050565b634e487b7160e01b600052603260045260246000fd5b6000828210156114e5576114e5611420565b500390565b600082198211156114fd576114fd611420565b500190565b60208082526032908201527f4552433732313a207472616e7366657220746f206e6f6e20455243373231526560408201527131b2b4bb32b91034b6b83632b6b2b73a32b960711b606082015260800190565b634e487b7160e01b600052601260045260246000fd5b60008261157957611579611554565b500490565b60008261158d5761158d611554565b500690565b6001600160a01b03858116825284166020820152604081018390526080606082018190526000906115c590830184611097565b9695505050505050565b6000602082840312156115e157600080fd5b815161098d8161103856fea2646970667358221220439ffc1617a7b2e8caae3d37e0b63617d9f977c983c8236f6ecc556bf6689b6c64736f6c634300080c0033",
  "linkReferences": {},
  "deployedLinkReferences": {}
}