{
  "_format": "hh-sol-artifact-1",
  "contractName": "Broker",
  "sourceName": "contracts/Broker.sol",
  "abi": [
    {
      "inputs": [
        {
          "internalType": "string",
          "name": "_name",
          "type": "string"
        }
      ],
      "stateMutability": "nonpayable",
      "type": "constructor"
    },
    {
      "anonymous": false,
      "inputs": [
        {
          "indexed": true,
          "internalType": "address",
          "name": "owner",
          "type": "address"
        },
        {
          "indexed": true,
          "internalType": "address",
          "name": "approved",
          "type": "address"
        },
        {
          "indexed": true,
          "internalType": "uint256",
          "name": "tokenId",
          "type": "uint256"
        }
      ],
      "name": "Approval",
      "type": "event"
    },
    {
      "anonymous": false,
      "inputs": [
        {
          "indexed": true,
          "internalType": "address",
          "name": "owner",
          "type": "address"
        },
        {
          "indexed": true,
          "internalType": "address",
          "name": "operator",
          "type": "address"
        },
        {
          "indexed": false,
          "internalType": "bool",
          "name": "approved",
          "type": "bool"
        }
      ],
      "name": "ApprovalForAll",
      "type": "event"
    },
    {
      "anonymous": false,
      "inputs": [
        {
          "indexed": true,
          "internalType": "address",
          "name": "from",
          "type": "address"
        },
        {
          "indexed": true,
          "internalType": "address",
          "name": "to",
          "type": "address"
        },
        {
          "indexed": true,
          "internalType": "uint256",
          "name": "tokenId",
          "type": "uint256"
        }
      ],
      "name": "Transfer",
      "type": "event"
    },
    {
      "inputs": [
        {
          "internalType": "address",
          "name": "to",
          "type": "address"
        },
        {
          "internalType": "uint256",
          "name": "tokenId",
          "type": "uint256"
        }
      ],
      "name": "approve",
      "outputs": [],
      "stateMutability": "nonpayable",
      "type": "function"
    },
    {
      "inputs": [
        {
          "internalType": "address",
          "name": "owner",
          "type": "address"
        }
      ],
      "name": "balanceOf",
      "outputs": [
        {
          "internalType": "uint256",
          "name": "",
          "type": "uint256"
        }
      ],
      "stateMutability": "view",
      "type": "function"
    },
    {
      "inputs": [
        {
          "internalType": "address",
          "name": "pharmacyAddress",
          "type": "address"
        },
        {
          "internalType": "uint256",
          "name": "drugId",
          "type": "uint256"
        }
      ],
      "name": "checkStock",
      "outputs": [
        {
          "internalType": "bool",
          "name": "",
          "type": "bool"
        }
      ],
      "stateMutability": "view",
      "type": "function"
    },
    {
      "inputs": [
        {
          "internalType": "address",
          "name": "checkoutContractAddress",
          "type": "address"
        },
        {
          "internalType": "string",
          "name": "tokenURI",
          "type": "string"
        }
      ],
      "name": "createCheckoutToken",
      "outputs": [],
      "stateMutability": "nonpayable",
      "type": "function"
    },
    {
      "inputs": [
        {
          "internalType": "string",
          "name": "_name",
          "type": "string"
        },
        {
          "components": [
            {
              "internalType": "uint256",
              "name": "latitude",
              "type": "uint256"
            },
            {
              "internalType": "uint256",
              "name": "longitude",
              "type": "uint256"
            }
          ],
          "internalType": "struct Broker.Location",
          "name": "location",
          "type": "tuple"
        },
        {
          "internalType": "uint256",
          "name": "id",
          "type": "uint256"
        }
      ],
      "name": "createPharmacy",
      "outputs": [],
      "stateMutability": "nonpayable",
      "type": "function"
    },
    {
      "inputs": [
        {
          "internalType": "address",
          "name": "stockReqContractAddress",
          "type": "address"
        },
        {
          "internalType": "address",
          "name": "pharmacyAddress",
          "type": "address"
        },
        {
          "internalType": "string",
          "name": "tokenURI",
          "type": "string"
        }
      ],
      "name": "createStockReqToken",
      "outputs": [],
      "stateMutability": "nonpayable",
      "type": "function"
    },
    {
      "inputs": [],
      "name": "fetchPharmacies",
      "outputs": [
        {
          "components": [
            {
              "components": [
                {
                  "internalType": "uint256",
                  "name": "latitude",
                  "type": "uint256"
                },
                {
                  "internalType": "uint256",
                  "name": "longitude",
                  "type": "uint256"
                }
              ],
              "internalType": "struct Broker.Location",
              "name": "location",
              "type": "tuple"
            },
            {
              "internalType": "string",
              "name": "name",
              "type": "string"
            },
            {
              "internalType": "uint256",
              "name": "id",
              "type": "uint256"
            }
          ],
          "internalType": "struct Broker.LocalPharmacy[]",
          "name": "",
          "type": "tuple[]"
        }
      ],
      "stateMutability": "view",
      "type": "function"
    },
    {
      "inputs": [
        {
          "internalType": "uint256",
          "name": "tokenId",
          "type": "uint256"
        }
      ],
      "name": "getApproved",
      "outputs": [
        {
          "internalType": "address",
          "name": "",
          "type": "address"
        }
      ],
      "stateMutability": "view",
      "type": "function"
    },
    {
      "inputs": [
        {
          "internalType": "address",
          "name": "owner",
          "type": "address"
        },
        {
          "internalType": "address",
          "name": "operator",
          "type": "address"
        }
      ],
      "name": "isApprovedForAll",
      "outputs": [
        {
          "internalType": "bool",
          "name": "",
          "type": "bool"
        }
      ],
      "stateMutability": "view",
      "type": "function"
    },
    {
      "inputs": [],
      "name": "name",
      "outputs": [
        {
          "internalType": "string",
          "name": "",
          "type": "string"
        }
      ],
      "stateMutability": "view",
      "type": "function"
    },
    {
      "inputs": [],
      "name": "owner",
      "outputs": [
        {
          "internalType": "address",
          "name": "",
          "type": "address"
        }
      ],
      "stateMutability": "view",
      "type": "function"
    },
    {
      "inputs": [
        {
          "internalType": "uint256",
          "name": "tokenId",
          "type": "uint256"
        }
      ],
      "name": "ownerOf",
      "outputs": [
        {
          "internalType": "address",
          "name": "",
          "type": "address"
        }
      ],
      "stateMutability": "view",
      "type": "function"
    },
    {
      "inputs": [
        {
          "internalType": "address",
          "name": "from",
          "type": "address"
        },
        {
          "internalType": "address",
          "name": "to",
          "type": "address"
        },
        {
          "internalType": "uint256",
          "name": "tokenId",
          "type": "uint256"
        }
      ],
      "name": "safeTransferFrom",
      "outputs": [],
      "stateMutability": "nonpayable",
      "type": "function"
    },
    {
      "inputs": [
        {
          "internalType": "address",
          "name": "from",
          "type": "address"
        },
        {
          "internalType": "address",
          "name": "to",
          "type": "address"
        },
        {
          "internalType": "uint256",
          "name": "tokenId",
          "type": "uint256"
        },
        {
          "internalType": "bytes",
          "name": "data",
          "type": "bytes"
        }
      ],
      "name": "safeTransferFrom",
      "outputs": [],
      "stateMutability": "nonpayable",
      "type": "function"
    },
    {
      "inputs": [
        {
          "internalType": "address",
          "name": "operator",
          "type": "address"
        },
        {
          "internalType": "bool",
          "name": "approved",
          "type": "bool"
        }
      ],
      "name": "setApprovalForAll",
      "outputs": [],
      "stateMutability": "nonpayable",
      "type": "function"
    },
    {
      "inputs": [
        {
          "internalType": "uint256",
          "name": "id",
          "type": "uint256"
        }
      ],
      "name": "setReservationTokenId",
      "outputs": [],
      "stateMutability": "nonpayable",
      "type": "function"
    },
    {
      "inputs": [
        {
          "internalType": "bytes4",
          "name": "interfaceId",
          "type": "bytes4"
        }
      ],
      "name": "supportsInterface",
      "outputs": [
        {
          "internalType": "bool",
          "name": "",
          "type": "bool"
        }
      ],
      "stateMutability": "view",
      "type": "function"
    },
    {
      "inputs": [],
      "name": "symbol",
      "outputs": [
        {
          "internalType": "string",
          "name": "",
          "type": "string"
        }
      ],
      "stateMutability": "view",
      "type": "function"
    },
    {
      "inputs": [
        {
          "internalType": "uint256",
          "name": "tokenId",
          "type": "uint256"
        }
      ],
      "name": "tokenURI",
      "outputs": [
        {
          "internalType": "string",
          "name": "",
          "type": "string"
        }
      ],
      "stateMutability": "view",
      "type": "function"
    },
    {
      "inputs": [
        {
          "internalType": "address",
          "name": "from",
          "type": "address"
        },
        {
          "internalType": "address",
          "name": "to",
          "type": "address"
        },
        {
          "internalType": "uint256",
          "name": "tokenId",
          "type": "uint256"
        }
      ],
      "name": "transferFrom",
      "outputs": [],
      "stateMutability": "nonpayable",
      "type": "function"
    },
    {
      "inputs": [
        {
          "internalType": "address",
          "name": "patientAddress",
          "type": "address"
        }
      ],
      "name": "transferReservationToken",
      "outputs": [],
      "stateMutability": "nonpayable",
      "type": "function"
    }
  ],
  "bytecode": "0x60806040523480156200001157600080fd5b5060405162001ba638038062001ba683398101604081905262000034916200016a565b6040805180820182526006815265213937b5b2b960d11b6020808301918252835180850190945260018452602160f91b9084015281519192916200007b91600091620000ae565b50805162000091906001906020840190620000ae565b5050600780546001600160a01b0319163317905550620002839050565b828054620000bc9062000246565b90600052602060002090601f016020900481019282620000e057600085556200012b565b82601f10620000fb57805160ff19168380011785556200012b565b828001600101855582156200012b579182015b828111156200012b5782518255916020019190600101906200010e565b50620001399291506200013d565b5090565b5b808211156200013957600081556001016200013e565b634e487b7160e01b600052604160045260246000fd5b600060208083850312156200017e57600080fd5b82516001600160401b03808211156200019657600080fd5b818501915085601f830112620001ab57600080fd5b815181811115620001c057620001c062000154565b604051601f8201601f19908116603f01168101908382118183101715620001eb57620001eb62000154565b8160405282815288868487010111156200020457600080fd5b600093505b8284101562000228578484018601518185018701529285019262000209565b828411156200023a5760008684830101525b98975050505050505050565b600181811c908216806200025b57607f821691505b602082108114156200027d57634e487b7160e01b600052602260045260246000fd5b50919050565b61191380620002936000396000f3fe608060405234801561001057600080fd5b50600436106101375760003560e01c806370a08231116100b8578063b88d4fde1161007c578063b88d4fde1461028d578063c87b56dd146102a0578063c9be655f146102b3578063d74fd464146102c6578063e870142d146102d9578063e985e9c5146102ee57600080fd5b806370a082311461022b5780638da5cb5b1461024c57806395d89b411461025f578063a22cb46514610267578063abcd0ef11461027a57600080fd5b806323b872dd116100ff57806323b872dd146101cc5780633e954b16146101df57806340fcb8cd146101f257806342842e0e146102055780636352211e1461021857600080fd5b806301ffc9a71461013c57806306fdde0314610164578063077fcda914610179578063081812fc1461018c578063095ea7b3146101b7575b600080fd5b61014f61014a3660046111bf565b61032a565b60405190151581526020015b60405180910390f35b61016c61037c565b60405161015b9190611234565b61014f610187366004611263565b61040e565b61019f61019a36600461128d565b610484565b6040516001600160a01b03909116815260200161015b565b6101ca6101c5366004611263565b6104ab565b005b6101ca6101da3660046112a6565b6105c6565b6101ca6101ed3660046112e2565b6105f7565b6101ca6102003660046113a9565b610615565b6101ca6102133660046112a6565b610691565b61019f61022636600461128d565b6106ac565b61023e6102393660046112e2565b61070c565b60405190815260200161015b565b60075461019f906001600160a01b031681565b61016c610792565b6101ca610275366004611415565b6107a1565b6101ca61028836600461144c565b6107b0565b6101ca61029b3660046114df565b610852565b61016c6102ae36600461128d565b61088a565b6101ca6102c136600461128d565b600855565b6101ca6102d436600461155b565b6108fe565b6102e161097d565b60405161015b91906115a9565b61014f6102fc366004611638565b6001600160a01b03918216600090815260056020908152604080832093909416825291909152205460ff1690565b60006001600160e01b031982166380ac58cd60e01b148061035b57506001600160e01b03198216635b5e139f60e01b145b8061037657506301ffc9a760e01b6001600160e01b03198316145b92915050565b60606000805461038b9061166b565b80601f01602080910402602001604051908101604052809291908181526020018280546103b79061166b565b80156104045780601f106103d957610100808354040283529160200191610404565b820191906000526020600020905b8154815290600101906020018083116103e757829003601f168201915b5050505050905090565b60405163a307fcf960e01b81526004810182905260009083906001600160a01b0382169063a307fcf990602401602060405180830381865afa158015610458573d6000803e3d6000fd5b505050506040513d601f19601f8201168201806040525081019061047c91906116a6565b949350505050565b600061048f82610b2b565b506000908152600460205260409020546001600160a01b031690565b60006104b6826106ac565b9050806001600160a01b0316836001600160a01b031614156105295760405162461bcd60e51b815260206004820152602160248201527f4552433732313a20617070726f76616c20746f2063757272656e74206f776e656044820152603960f91b60648201526084015b60405180910390fd5b336001600160a01b0382161480610545575061054581336102fc565b6105b75760405162461bcd60e51b815260206004820152603e60248201527f4552433732313a20617070726f76652063616c6c6572206973206e6f7420746f60448201527f6b656e206f776e6572206e6f7220617070726f76656420666f7220616c6c00006064820152608401610520565b6105c18383610b8a565b505050565b6105d03382610bf8565b6105ec5760405162461bcd60e51b8152600401610520906116c3565b6105c1838383610c76565b600754600854610612916001600160a01b0316908390610c76565b50565b604051633ab2af8560e21b815283906001600160a01b0382169063eacabe14906106459086908690600401611711565b6020604051808303816000875af1158015610664573d6000803e3d6000fd5b505050506040513d601f19601f820116820180604052508101906106889190611735565b60095550505050565b6105c183838360405180602001604052806000815250610852565b6000818152600260205260408120546001600160a01b0316806103765760405162461bcd60e51b8152602060048201526018602482015277115490cdcc8c4e881a5b9d985b1a59081d1bdad95b88125160421b6044820152606401610520565b60006001600160a01b0382166107765760405162461bcd60e51b815260206004820152602960248201527f4552433732313a2061646472657373207a65726f206973206e6f7420612076616044820152683634b21037bbb732b960b91b6064820152608401610520565b506001600160a01b031660009081526003602052604090205490565b60606001805461038b9061166b565b6107ac338383610e12565b5050565b6007546001600160a01b031633146107f65760405162461bcd60e51b81526020600482015260096024820152682737ba1037bbb732b960b91b6044820152606401610520565b610804600680546001019055565b600061080f60065490565b6000818152600b602090815260409091208551815585820151600182015586519293509161084591600284019190880190611110565b5060030191909155505050565b61085c3383610bf8565b6108785760405162461bcd60e51b8152600401610520906116c3565b61088484848484610ee1565b50505050565b606061089582610b2b565b60006108ac60408051602081019091526000815290565b905060008151116108cc57604051806020016040528060008152506108f7565b806108d684610f14565b6040516020016108e792919061174e565b6040516020818303038152906040525b9392505050565b600754604051633ab2af8560e21b815283916001600160a01b038084169263eacabe14926109329216908690600401611711565b6020604051808303816000875af1158015610951573d6000803e3d6000fd5b505050506040513d601f19601f820116820180604052508101906109759190611735565b600a55505050565b6060600061098a60065490565b905060008167ffffffffffffffff8111156109a7576109a76112fd565b604051908082528060200260200182016040528015610a0157816020015b6040805160a081018252600060608083018281526080840183905283526020830152918101919091528152602001906001900390816109c55790505b50905060005b82811015610b24576000610a1c826001611793565b6000818152600b6020908152604091829020825160a081019093528054606084019081526001820154608085015283526002810180549495509093849284019190610a669061166b565b80601f0160208091040260200160405190810160405280929190818152602001828054610a929061166b565b8015610adf5780601f10610ab457610100808354040283529160200191610adf565b820191906000526020600020905b815481529060010190602001808311610ac257829003601f168201915b50505050508152602001600382015481525050848481518110610b0457610b046117ab565b602002602001018190525050508080610b1c906117c1565b915050610a07565b5092915050565b6000818152600260205260409020546001600160a01b03166106125760405162461bcd60e51b8152602060048201526018602482015277115490cdcc8c4e881a5b9d985b1a59081d1bdad95b88125160421b6044820152606401610520565b600081815260046020526040902080546001600160a01b0319166001600160a01b0384169081179091558190610bbf826106ac565b6001600160a01b03167f8c5be1e5ebec7d5bd14f71427d1e84f3dd0314c0f7b2291e5b200ac8c7c3b92560405160405180910390a45050565b600080610c04836106ac565b9050806001600160a01b0316846001600160a01b03161480610c4b57506001600160a01b0380821660009081526005602090815260408083209388168352929052205460ff165b8061047c5750836001600160a01b0316610c6484610484565b6001600160a01b031614949350505050565b826001600160a01b0316610c89826106ac565b6001600160a01b031614610ced5760405162461bcd60e51b815260206004820152602560248201527f4552433732313a207472616e736665722066726f6d20696e636f72726563742060448201526437bbb732b960d91b6064820152608401610520565b6001600160a01b038216610d4f5760405162461bcd60e51b8152602060048201526024808201527f4552433732313a207472616e7366657220746f20746865207a65726f206164646044820152637265737360e01b6064820152608401610520565b610d5a600082610b8a565b6001600160a01b0383166000908152600360205260408120805460019290610d839084906117dc565b90915550506001600160a01b0382166000908152600360205260408120805460019290610db1908490611793565b909155505060008181526002602052604080822080546001600160a01b0319166001600160a01b0386811691821790925591518493918716917fddf252ad1be2c89b69c2b068fc378daa952ba7f163c4a11628f55a4df523b3ef91a4505050565b816001600160a01b0316836001600160a01b03161415610e745760405162461bcd60e51b815260206004820152601960248201527f4552433732313a20617070726f766520746f2063616c6c6572000000000000006044820152606401610520565b6001600160a01b03838116600081815260056020908152604080832094871680845294825291829020805460ff191686151590811790915591519182527f17307eab39ab6107e8899845ad3d59bd9653f200f220920489ca2b5937696c31910160405180910390a3505050565b610eec848484610c76565b610ef884848484611012565b6108845760405162461bcd60e51b8152600401610520906117f3565b606081610f385750506040805180820190915260018152600360fc1b602082015290565b8160005b8115610f625780610f4c816117c1565b9150610f5b9050600a8361185b565b9150610f3c565b60008167ffffffffffffffff811115610f7d57610f7d6112fd565b6040519080825280601f01601f191660200182016040528015610fa7576020820181803683370190505b5090505b841561047c57610fbc6001836117dc565b9150610fc9600a8661186f565b610fd4906030611793565b60f81b818381518110610fe957610fe96117ab565b60200101906001600160f81b031916908160001a90535061100b600a8661185b565b9450610fab565b60006001600160a01b0384163b1561110557604051630a85bd0160e11b81526001600160a01b0385169063150b7a0290611056903390899088908890600401611883565b6020604051808303816000875af1925050508015611091575060408051601f3d908101601f1916820190925261108e918101906118c0565b60015b6110eb573d8080156110bf576040519150601f19603f3d011682016040523d82523d6000602084013e6110c4565b606091505b5080516110e35760405162461bcd60e51b8152600401610520906117f3565b805181602001fd5b6001600160e01b031916630a85bd0160e11b14905061047c565b506001949350505050565b82805461111c9061166b565b90600052602060002090601f01602090048101928261113e5760008555611184565b82601f1061115757805160ff1916838001178555611184565b82800160010185558215611184579182015b82811115611184578251825591602001919060010190611169565b50611190929150611194565b5090565b5b808211156111905760008155600101611195565b6001600160e01b03198116811461061257600080fd5b6000602082840312156111d157600080fd5b81356108f7816111a9565b60005b838110156111f75781810151838201526020016111df565b838111156108845750506000910152565b600081518084526112208160208601602086016111dc565b601f01601f19169290920160200192915050565b6020815260006108f76020830184611208565b80356001600160a01b038116811461125e57600080fd5b919050565b6000806040838503121561127657600080fd5b61127f83611247565b946020939093013593505050565b60006020828403121561129f57600080fd5b5035919050565b6000806000606084860312156112bb57600080fd5b6112c484611247565b92506112d260208501611247565b9150604084013590509250925092565b6000602082840312156112f457600080fd5b6108f782611247565b634e487b7160e01b600052604160045260246000fd5b600067ffffffffffffffff8084111561132e5761132e6112fd565b604051601f8501601f19908116603f01168101908282118183101715611356576113566112fd565b8160405280935085815286868601111561136f57600080fd5b858560208301376000602087830101525050509392505050565b600082601f83011261139a57600080fd5b6108f783833560208501611313565b6000806000606084860312156113be57600080fd5b6113c784611247565b92506113d560208501611247565b9150604084013567ffffffffffffffff8111156113f157600080fd5b6113fd86828701611389565b9150509250925092565b801515811461061257600080fd5b6000806040838503121561142857600080fd5b61143183611247565b9150602083013561144181611407565b809150509250929050565b6000806000838503608081121561146257600080fd5b843567ffffffffffffffff8082111561147a57600080fd5b61148688838901611389565b95506040601f198401121561149a57600080fd5b604051925060408301915082821081831117156114b9576114b96112fd565b506040908152602086810135835290860135908201529295929450505060609091013590565b600080600080608085870312156114f557600080fd5b6114fe85611247565b935061150c60208601611247565b925060408501359150606085013567ffffffffffffffff81111561152f57600080fd5b8501601f8101871361154057600080fd5b61154f87823560208401611313565b91505092959194509250565b6000806040838503121561156e57600080fd5b61157783611247565b9150602083013567ffffffffffffffff81111561159357600080fd5b61159f85828601611389565b9150509250929050565b60006020808301818452808551808352604092508286019150828160051b87010184880160005b8381101561162a57888303603f190185528151805180518552880151888501528781015160808886018190529061160982870182611208565b928901516060969096019590955250948701949250908601906001016115d0565b509098975050505050505050565b6000806040838503121561164b57600080fd5b61165483611247565b915061166260208401611247565b90509250929050565b600181811c9082168061167f57607f821691505b602082108114156116a057634e487b7160e01b600052602260045260246000fd5b50919050565b6000602082840312156116b857600080fd5b81516108f781611407565b6020808252602e908201527f4552433732313a2063616c6c6572206973206e6f7420746f6b656e206f776e6560408201526d1c881b9bdc88185c1c1c9bdd995960921b606082015260800190565b6001600160a01b038316815260406020820181905260009061047c90830184611208565b60006020828403121561174757600080fd5b5051919050565b600083516117608184602088016111dc565b8351908301906117748183602088016111dc565b01949350505050565b634e487b7160e01b600052601160045260246000fd5b600082198211156117a6576117a661177d565b500190565b634e487b7160e01b600052603260045260246000fd5b60006000198214156117d5576117d561177d565b5060010190565b6000828210156117ee576117ee61177d565b500390565b60208082526032908201527f4552433732313a207472616e7366657220746f206e6f6e20455243373231526560408201527131b2b4bb32b91034b6b83632b6b2b73a32b960711b606082015260800190565b634e487b7160e01b600052601260045260246000fd5b60008261186a5761186a611845565b500490565b60008261187e5761187e611845565b500690565b6001600160a01b03858116825284166020820152604081018390526080606082018190526000906118b690830184611208565b9695505050505050565b6000602082840312156118d257600080fd5b81516108f7816111a956fea26469706673582212207c771de17f5fa887163d4597d0ec97fe4a0e835a1895d8a739bcb19c16da97d464736f6c634300080c0033",
  "linkReferences": {},
  "deployedLinkReferences": {}
}